{
  "_format": "hh-sol-artifact-1",
  "contractName": "OffchainTrade",
  "sourceName": "contracts/OffchainTrade.sol",
  "abi": [
    {
      "inputs": [
        {
          "internalType": "address",
          "name": "target",
          "type": "address"
        }
      ],
      "name": "AddressEmptyCode",
      "type": "error"
    },
    {
      "inputs": [
        {
          "internalType": "address",
          "name": "account",
          "type": "address"
        }
      ],
      "name": "AddressInsufficientBalance",
      "type": "error"
    },
    {
      "inputs": [],
      "name": "AllowanceCheckFailed",
      "type": "error"
    },
    {
      "inputs": [],
      "name": "AlreadyRegistered",
      "type": "error"
    },
    {
      "inputs": [],
      "name": "AlreadyReleased",
      "type": "error"
    },
    {
      "inputs": [],
      "name": "BuyerNotRegistered",
      "type": "error"
    },
    {
      "inputs": [],
      "name": "ECDSAInvalidSignature",
      "type": "error"
    },
    {
      "inputs": [
        {
          "internalType": "uint256",
          "name": "length",
          "type": "uint256"
        }
      ],
      "name": "ECDSAInvalidSignatureLength",
      "type": "error"
    },
    {
      "inputs": [
        {
          "internalType": "bytes32",
          "name": "s",
          "type": "bytes32"
        }
      ],
      "name": "ECDSAInvalidSignatureS",
      "type": "error"
    },
    {
      "inputs": [],
      "name": "FailedInnerCall",
      "type": "error"
    },
    {
      "inputs": [],
      "name": "InsufficientFunds",
      "type": "error"
    },
    {
      "inputs": [],
      "name": "InvalidAmount",
      "type": "error"
    },
    {
      "inputs": [],
      "name": "NotSeller",
      "type": "error"
    },
    {
      "inputs": [],
      "name": "OrderIdNotExist",
      "type": "error"
    },
    {
      "inputs": [],
      "name": "ReentrancyGuardReentrantCall",
      "type": "error"
    },
    {
      "inputs": [
        {
          "internalType": "address",
          "name": "token",
          "type": "address"
        }
      ],
      "name": "SafeERC20FailedOperation",
      "type": "error"
    },
    {
      "inputs": [],
      "name": "SellersCantRegister",
      "type": "error"
    },
    {
      "inputs": [],
      "name": "TransactionFailed",
      "type": "error"
    },
    {
      "inputs": [],
      "name": "WrongSellerAddress",
      "type": "error"
    },
    {
      "anonymous": false,
      "inputs": [
        {
          "indexed": true,
          "internalType": "address",
          "name": "buyer",
          "type": "address"
        },
        {
          "indexed": false,
          "internalType": "uint256",
          "name": "orderId",
          "type": "uint256"
        }
      ],
      "name": "FundsReleased",
      "type": "event"
    },
    {
      "anonymous": false,
      "inputs": [
        {
          "indexed": true,
          "internalType": "address",
          "name": "seller",
          "type": "address"
        },
        {
          "indexed": true,
          "internalType": "uint256",
          "name": "amount",
          "type": "uint256"
        },
        {
          "indexed": true,
          "internalType": "address",
          "name": "token",
          "type": "address"
        },
        {
          "indexed": false,
          "internalType": "enum OrderStatus",
          "name": "status",
          "type": "uint8"
        }
      ],
      "name": "OrderListed",
      "type": "event"
    },
    {
      "anonymous": false,
      "inputs": [
        {
          "indexed": true,
          "internalType": "address",
          "name": "buyer",
          "type": "address"
        },
        {
          "indexed": true,
          "internalType": "uint256",
          "name": "orderId",
          "type": "uint256"
        }
      ],
      "name": "RegisterAsBuyer",
      "type": "event"
    },
    {
      "inputs": [
        {
          "internalType": "uint256",
          "name": "_orderId",
          "type": "uint256"
        },
        {
          "internalType": "address",
          "name": "_buyer",
          "type": "address"
        }
      ],
      "name": "getMessages",
      "outputs": [
        {
          "internalType": "uint256",
          "name": "_message",
          "type": "uint256"
        }
      ],
      "stateMutability": "view",
      "type": "function"
    },
    {
      "inputs": [
        {
          "internalType": "uint256",
          "name": "_orderId",
          "type": "uint256"
        }
      ],
      "name": "getOrderDetails",
      "outputs": [
        {
          "components": [
            {
              "internalType": "uint256",
              "name": "amount",
              "type": "uint256"
            },
            {
              "internalType": "address",
              "name": "seller",
              "type": "address"
            },
            {
              "internalType": "address",
              "name": "token",
              "type": "address"
            },
            {
              "internalType": "enum OrderStatus",
              "name": "status",
              "type": "uint8"
            },
            {
              "internalType": "address[]",
              "name": "buyers",
              "type": "address[]"
            },
            {
              "internalType": "uint256[]",
              "name": "messages",
              "type": "uint256[]"
            }
          ],
          "internalType": "struct OffchainTrade.Order",
          "name": "order",
          "type": "tuple"
        }
      ],
      "stateMutability": "view",
      "type": "function"
    },
    {
      "inputs": [
        {
          "internalType": "uint256",
          "name": "_orderId",
          "type": "uint256"
        }
      ],
      "name": "getOrderStatus",
      "outputs": [
        {
          "internalType": "enum OrderStatus",
          "name": "status",
          "type": "uint8"
        }
      ],
      "stateMutability": "view",
      "type": "function"
    },
    {
      "inputs": [
        {
          "internalType": "uint256",
          "name": "",
          "type": "uint256"
        },
        {
          "internalType": "address",
          "name": "",
          "type": "address"
        }
      ],
      "name": "isBuyerRegistered",
      "outputs": [
        {
          "internalType": "bool",
          "name": "",
          "type": "bool"
        }
      ],
      "stateMutability": "view",
      "type": "function"
    },
    {
      "inputs": [
        {
          "internalType": "uint256",
          "name": "_amount",
          "type": "uint256"
        },
        {
          "internalType": "address",
          "name": "_token",
          "type": "address"
        }
      ],
      "name": "listOrderAsSeller",
      "outputs": [],
      "stateMutability": "payable",
      "type": "function"
    },
    {
      "inputs": [
        {
          "internalType": "bytes32",
          "name": "_hash",
          "type": "bytes32"
        },
        {
          "internalType": "bytes",
          "name": "_sign",
          "type": "bytes"
        }
      ],
      "name": "recoverSignedAddress",
      "outputs": [
        {
          "internalType": "address",
          "name": "recoveredAddress",
          "type": "address"
        }
      ],
      "stateMutability": "pure",
      "type": "function"
    },
    {
      "inputs": [
        {
          "internalType": "uint256",
          "name": "_orderId",
          "type": "uint256"
        },
        {
          "internalType": "uint256",
          "name": "_message",
          "type": "uint256"
        }
      ],
      "name": "registerAsBuyer",
      "outputs": [],
      "stateMutability": "nonpayable",
      "type": "function"
    },
    {
      "inputs": [
        {
          "internalType": "uint256",
          "name": "_orderId",
          "type": "uint256"
        },
        {
          "internalType": "bytes",
          "name": "_sign",
          "type": "bytes"
        },
        {
          "internalType": "address",
          "name": "_buyer",
          "type": "address"
        }
      ],
      "name": "releaseFunds",
      "outputs": [],
      "stateMutability": "nonpayable",
      "type": "function"
    },
    {
      "inputs": [],
      "name": "totalOrders",
      "outputs": [
        {
          "internalType": "uint256",
          "name": "",
          "type": "uint256"
        }
      ],
      "stateMutability": "view",
      "type": "function"
    }
  ],
  "bytecode": "0x6080806040523461001a5760015f55610f80908161001f8239f35b5f80fdfe6080604081815260049182361015610015575f80fd5b5f90813560e01c9081631d83440914610be05750806345fa8aae14610a9057806355caccce14610a4957806381a41611146107665780639e368a2914610549578063ae4af9ea146104f9578063b1b4c558146102e0578063ec7dd7bb146100ee5763fd76554a14610084575f80fd5b346100eb57816003193601126100eb57823561009e610c1d565b81835260026020528383206001015490916001600160a01b0391821633036100db5783526020948552838320911682528352819020549051908152f35b8451635ec8235160e01b81528690fd5b80fd5b50346100eb57602091826003193601126102dc57606060a0825161011181610c37565b8481528486820152848482015284838201528260808201520152833582526002835280822090805161014281610c37565b8254815260018060a01b03926001968488830154169387840194855260028301549060ff81860192888116845260a01c1692606086019360028110156102c957849b9998969b526003850194825195868c82549182815201918b528c8b20908b5b8181106102b457505050866101b9910387610c83565b60808c019586520195815196878b82549182815201918a528b8a20908a5b8181106102a1575050509286959492868998936101fb8e9f9b61022a98038b610c83565b60a08b01998a5282518e819f825260e082019c519101525116908c0152511660608a0152516080890190610bfc565b519260c060a0880152835180915287610100880194019185905b82821061028a57505050505194601f198583030160c08601528080875193848152019601925b8281106102775785870386f35b835187529581019592810192840161026a565b835181168652948901949289019290870190610244565b82548452928d0192918c01918c016101d7565b82548b168452928e0192918d01918d016101a3565b634e487b7160e01b8a526021825260248afd5b5080fd5b509190806003193601126104f5578135906102f9610c1d565b90610302610d07565b82156104e6576001545f1981146104d357600190810180825586526002602090815282872091820180546001600160a01b031916331790556001600160a01b0390931694856103b457670de0b6b3a7640000340485036103a6575090600282857fe11397742931cf8ec8fb96d1509ea9d345485ebbf4b4097cdb268fb4f8ec804b94555b0180546001600160a81b0319168617905551858152339290a46001815580f35b825163356680b760e01b8152fd5b82516370a0823160e01b8152338282015284816024818a5afa9081156104985790869189916104a2575b5010801561042a575b610419575090600282857fe11397742931cf8ec8fb96d1509ea9d345485ebbf4b4097cdb268fb4f8ec804b9455610386565b82516001622e27f760e11b03198152fd5b508251636eb1769f60e11b8152338282015230602482015284816044818a5afa908115610498579086918991610463575b5014156103e7565b809250868092503d8311610491575b61047c8183610c83565b8101031261048d578590515f61045b565b8780fd5b503d610472565b84513d8a823e3d90fd5b809250868092503d83116104cc575b6104bb8183610c83565b8101031261048d578590515f6103de565b503d6104b1565b634e487b7160e01b865260118552602486fd5b5163162908e360e11b81528390fd5b8280fd5b50346100eb57816003193601126100eb576024359067ffffffffffffffff82116100eb57506020926105316105389236908301610cc1565b9035610dba565b90516001600160a01b039091168152f35b509190346104f557806003193601126104f557813590610567610d07565b600192828454106107585782855260209060028252828620835161058a81610c37565b8154815260018060a01b03908188840154169085810191825260ff60028501548481168984015260a01c169360608201946002811015610745578b929187918752600381018a51908d828c835491828152019288528c8089209289915b83831061071b575050505050816105ff910382610c83565b608084015201885190819384928a835491828152019282528d8b832092905b8c83831061070557505050505060a0929161063a910384610c83565b0152511633146106f65784875260038352838720338852835260ff84882054166106e7575160028110156106d4576106c6578386526003825282862033875282528286208560ff198254161790558386528152818520903386525260243590842055337f7e1b42d795bbf83a2002a8154af05e39477fc48963aa388d575a1a7cdd6d34af8480a3815580f35b82516331da482760e11b8152fd5b634e487b7160e01b875260218252602487fd5b508251630ea075bf60e21b8152fd5b508251633482e86160e21b8152fd5b845486528896509094019392830192018e61061e565b919490939698995083929597508b87541681520194019101908f96959391928f938c96948e6105e7565b634e487b7160e01b8c526021875260248cfd5b9051637897c72360e01b8152fd5b5090346102dc5760603660031901126102dc5760249267ffffffffffffffff918135908535848111610a455761079f9036908501610cc1565b6001600160a01b036044358181169690959291878703610a41576107c1610d07565b85895260209660028852858a2093600285019182549160ff8360a01c166002811015610a2f57610a1f578460018801541691823303610a0f578a8e5260038c52898e208d8f528c52898e205460ff16156109ff5760ff60a01b198416600160a01b1785558a8e52888c52898e208d8f528c52898e20548a5160609290921b6bffffffffffffffffffffffff1916828e01908152603480840192909252908252869261087a9290919061087281610c67565b519020610dba565b16036109ef5782161561096c579089929154169254908551908882019263a9059cbb60e01b84528a8d84015260448301526044825260808201908282109082111761095a578652516108dd929182919082865af16108d6610d28565b9083610d57565b8051868115159182610939575b505090506109265750507f221c08a06b07a64803b3787861a3f276212fcccb51c2e6234077a9b8cb13047a939495505b51908152a26001815580f35b87925191635274afe760e01b8352820152fd5b838092935001031261048d5785015180159081150361048d5780865f6108ea565b634e487b7160e01b8452604186528b84fd5b5050509690965490670de0b6b3a7640000918281029281840414901517156109de57508580808093885af161099f610d28565b50156109cf577f221c08a06b07a64803b3787861a3f276212fcccb51c2e6234077a9b8cb13047a9394955061091a565b516317f2c34560e31b81528590fd5b634e487b7160e01b87526011885286fd5b86516308a24ab560e31b81528690fd5b8951633f165a6160e21b81528990fd5b8951635ec8235160e01b81528990fd5b88516331da482760e11b81528890fd5b634e487b7160e01b8e52602189528e8efd5b8880fd5b8580fd5b5091346104f557816003193601126104f5578160209360ff92610a6a610c1d565b90358252600386528282206001600160a01b039091168252855220549151911615158152f35b509190346104f557602092836003193601126100eb578235815260028452818120825190610abd82610c37565b8054825260018060a01b03916001918383820154168883015260ff60028201548581168885015260a01c169360608301946002811015610bcd57855286516003830180548083529088528a88209495948a94938c840192908a908e5b838310610bb257505050505081610b31910382610c83565b60808501520191855191829384918a825495868152019188528a882090885b8c878210610b9c575050505060a0935090610b6c910384610c83565b015251926002841015610b89575050610b8790518092610bfc565bf35b634e487b7160e01b825260219052602490fd5b8354855288955090930192918101918101610b50565b8454821686528e98509094019392880192908801908e610b19565b634e487b7160e01b875260218952602487fd5b9050346102dc57816003193601126102dc576020906001548152f35b906002821015610c095752565b634e487b7160e01b5f52602160045260245ffd5b602435906001600160a01b0382168203610c3357565b5f80fd5b60c0810190811067ffffffffffffffff821117610c5357604052565b634e487b7160e01b5f52604160045260245ffd5b6060810190811067ffffffffffffffff821117610c5357604052565b90601f8019910116810190811067ffffffffffffffff821117610c5357604052565b67ffffffffffffffff8111610c5357601f01601f191660200190565b81601f82011215610c3357803590610cd882610ca5565b92610ce66040519485610c83565b82845260208383010111610c3357815f926020809301838601378301015290565b60025f5414610d165760025f55565b604051633ee5aeb560e01b8152600490fd5b3d15610d52573d90610d3982610ca5565b91610d476040519384610c83565b82523d5f602084013e565b606090565b90610d7e5750805115610d6c57805190602001fd5b604051630a12f52160e11b8152600490fd5b81511580610db1575b610d8f575090565b604051639996b31560e01b81526001600160a01b039091166004820152602490fd5b50803b15610d87565b610e1091610e079160405160208101917f19457468657265756d205369676e6564204d6573736167653a0a3332000000008352603c820152603c8152610dff81610c67565b519020610e13565b90929192610edb565b90565b8151919060418303610e4357610e3c9250602082015190606060408401519301515f1a90610e4d565b9192909190565b50505f9160029190565b91907f7fffffffffffffffffffffffffffffff5d576e7357a4501ddfe92f46681b20a08411610ed057926020929160ff6080956040519485521684840152604083015260608201525f92839182805260015afa15610ec45780516001600160a01b03811615610ebb57918190565b50809160019190565b604051903d90823e3d90fd5b5050505f9160039190565b6004811015610c095780610eed575050565b60018103610f075760405163f645eedf60e01b8152600490fd5b60028103610f285760405163fce698f760e01b815260048101839052602490fd5b600314610f325750565b602490604051906335e2f38360e21b82526004820152fdfea2646970667358221220c9a362a1ec1fbbd643e519739aa0ae15daa180fa000ac311990dc15b97f7e3f964736f6c63430008140033",
  "linkReferences": {},
  "deployedLinkReferences": {}
}