{
  "_format": "hh-sol-artifact-1",
  "contractName": "OffchainTrade",
  "sourceName": "contracts/OffchainTrade.sol",
  "abi": [
    {
      "inputs": [
        {
          "internalType": "address",
          "name": "target",
          "type": "address"
        }
      ],
      "name": "AddressEmptyCode",
      "type": "error"
    },
    {
      "inputs": [
        {
          "internalType": "address",
          "name": "account",
          "type": "address"
        }
      ],
      "name": "AddressInsufficientBalance",
      "type": "error"
    },
    {
      "inputs": [],
      "name": "AllowanceCheckFailed",
      "type": "error"
    },
    {
      "inputs": [],
      "name": "AlreadyRegistered",
      "type": "error"
    },
    {
      "inputs": [],
      "name": "AlreadyReleased",
      "type": "error"
    },
    {
      "inputs": [],
      "name": "BuyerNotRegistered",
      "type": "error"
    },
    {
      "inputs": [],
      "name": "ECDSAInvalidSignature",
      "type": "error"
    },
    {
      "inputs": [
        {
          "internalType": "uint256",
          "name": "length",
          "type": "uint256"
        }
      ],
      "name": "ECDSAInvalidSignatureLength",
      "type": "error"
    },
    {
      "inputs": [
        {
          "internalType": "bytes32",
          "name": "s",
          "type": "bytes32"
        }
      ],
      "name": "ECDSAInvalidSignatureS",
      "type": "error"
    },
    {
      "inputs": [],
      "name": "FailedInnerCall",
      "type": "error"
    },
    {
      "inputs": [],
      "name": "InsufficientFunds",
      "type": "error"
    },
    {
      "inputs": [],
      "name": "InvalidAmount",
      "type": "error"
    },
    {
      "inputs": [],
      "name": "NotSeller",
      "type": "error"
    },
    {
      "inputs": [],
      "name": "OrderIdNotExist",
      "type": "error"
    },
    {
      "inputs": [],
      "name": "ReentrancyGuardReentrantCall",
      "type": "error"
    },
    {
      "inputs": [
        {
          "internalType": "address",
          "name": "token",
          "type": "address"
        }
      ],
      "name": "SafeERC20FailedOperation",
      "type": "error"
    },
    {
      "inputs": [],
      "name": "SellersCantRegister",
      "type": "error"
    },
    {
      "inputs": [],
      "name": "TransactionFailed",
      "type": "error"
    },
    {
      "inputs": [],
      "name": "WrongSellerAddress",
      "type": "error"
    },
    {
      "anonymous": false,
      "inputs": [
        {
          "indexed": true,
          "internalType": "address",
          "name": "buyer",
          "type": "address"
        },
        {
          "indexed": false,
          "internalType": "uint256",
          "name": "orderId",
          "type": "uint256"
        }
      ],
      "name": "FundsReleased",
      "type": "event"
    },
    {
      "anonymous": false,
      "inputs": [
        {
          "indexed": true,
          "internalType": "address",
          "name": "seller",
          "type": "address"
        },
        {
          "indexed": true,
          "internalType": "uint256",
          "name": "amount",
          "type": "uint256"
        },
        {
          "indexed": true,
          "internalType": "address",
          "name": "token",
          "type": "address"
        },
        {
          "indexed": false,
          "internalType": "enum OrderStatus",
          "name": "state",
          "type": "uint8"
        }
      ],
      "name": "OrderListed",
      "type": "event"
    },
    {
      "anonymous": false,
      "inputs": [
        {
          "indexed": true,
          "internalType": "address",
          "name": "buyer",
          "type": "address"
        },
        {
          "indexed": true,
          "internalType": "uint256",
          "name": "orderId",
          "type": "uint256"
        }
      ],
      "name": "RegisterAsBuyer",
      "type": "event"
    },
    {
      "inputs": [
        {
          "internalType": "uint256",
          "name": "_orderId",
          "type": "uint256"
        },
        {
          "internalType": "address",
          "name": "_buyer",
          "type": "address"
        }
      ],
      "name": "getMessages",
      "outputs": [
        {
          "internalType": "uint256",
          "name": "_message",
          "type": "uint256"
        }
      ],
      "stateMutability": "view",
      "type": "function"
    },
    {
      "inputs": [
        {
          "internalType": "uint256",
          "name": "_orderId",
          "type": "uint256"
        }
      ],
      "name": "getOrderDetails",
      "outputs": [
        {
          "components": [
            {
              "internalType": "uint256",
              "name": "amount",
              "type": "uint256"
            },
            {
              "internalType": "address",
              "name": "seller",
              "type": "address"
            },
            {
              "internalType": "address",
              "name": "token",
              "type": "address"
            },
            {
              "internalType": "enum OrderStatus",
              "name": "state",
              "type": "uint8"
            },
            {
              "internalType": "address[]",
              "name": "buyers",
              "type": "address[]"
            },
            {
              "internalType": "uint256[]",
              "name": "messages",
              "type": "uint256[]"
            }
          ],
          "internalType": "struct OffchainTrade.Order",
          "name": "order",
          "type": "tuple"
        }
      ],
      "stateMutability": "view",
      "type": "function"
    },
    {
      "inputs": [
        {
          "internalType": "uint256",
          "name": "",
          "type": "uint256"
        },
        {
          "internalType": "address",
          "name": "",
          "type": "address"
        }
      ],
      "name": "isBuyerRegistered",
      "outputs": [
        {
          "internalType": "bool",
          "name": "",
          "type": "bool"
        }
      ],
      "stateMutability": "view",
      "type": "function"
    },
    {
      "inputs": [
        {
          "internalType": "uint256",
          "name": "_amount",
          "type": "uint256"
        },
        {
          "internalType": "address",
          "name": "_token",
          "type": "address"
        }
      ],
      "name": "listOrderAsSeller",
      "outputs": [],
      "stateMutability": "payable",
      "type": "function"
    },
    {
      "inputs": [
        {
          "internalType": "bytes32",
          "name": "_hash",
          "type": "bytes32"
        },
        {
          "internalType": "bytes",
          "name": "_sign",
          "type": "bytes"
        }
      ],
      "name": "recoverSignedAddress",
      "outputs": [
        {
          "internalType": "address",
          "name": "recoveredAddress",
          "type": "address"
        }
      ],
      "stateMutability": "pure",
      "type": "function"
    },
    {
      "inputs": [
        {
          "internalType": "uint256",
          "name": "_orderId",
          "type": "uint256"
        },
        {
          "internalType": "uint256",
          "name": "_message",
          "type": "uint256"
        }
      ],
      "name": "registerAsBuyer",
      "outputs": [],
      "stateMutability": "nonpayable",
      "type": "function"
    },
    {
      "inputs": [
        {
          "internalType": "uint256",
          "name": "_orderId",
          "type": "uint256"
        },
        {
          "internalType": "bytes",
          "name": "_sign",
          "type": "bytes"
        },
        {
          "internalType": "address",
          "name": "_buyer",
          "type": "address"
        }
      ],
      "name": "releaseFunds",
      "outputs": [],
      "stateMutability": "nonpayable",
      "type": "function"
    },
    {
      "inputs": [],
      "name": "totalOrders",
      "outputs": [
        {
          "internalType": "uint256",
          "name": "",
          "type": "uint256"
        }
      ],
      "stateMutability": "view",
      "type": "function"
    }
  ],
  "bytecode": "0x6080806040523461001a5760015f55610e4c908161001f8239f35b5f80fdfe6080604081815260049182361015610015575f80fd5b5f90813560e01c9081631d83440914610ab95750806355caccce14610a7257806381a416111461078b5780639e368a291461056e578063ae4af9ea1461051e578063b1b4c55814610305578063ec7dd7bb146100e35763fd76554a14610079575f80fd5b346100e057816003193601126100e0578235610093610ad5565b81835260026020528383206001015490916001600160a01b0391821633036100d05783526020948552838320911682528352819020549051908152f35b8451635ec8235160e01b81528690fd5b80fd5b50346100e057602090816003193601126100e057606060a0845161010681610aef565b838152838582015283868201528383820152826080820152015283358152600282528281209383519061013882610aef565b8554825260018060a01b03916001968388820154169286830193845260028201549760ff818501998781168b5260a01c1690606085019160028110156102f2578794849184528a8d8b6003840191865190819a858c968654948581520195855280852094915b8483106102cd57505050505050906101b7910387610b3b565b6080870195865201958151968c888c83549182815201928c528c8c20918c5b8281106102ba575050505091888b9c926101f68a839d9e9c96038b610b3b565b60a08901998a5282519d8e528d8b60e082019a519101525116908c0152511660608a0152519060028210156102a7575060808801525160c060a0880152805191829052929694936101008701938801919085905b82821061029057505050505194601f198583030160c08601528080875193848152019601925b82811061027d5785870386f35b8351875295810195928101928401610270565b83518116865294890194928901929087019061024a565b634e487b7160e01b885260219052602487fd5b83548552938e01939281019281016101d6565b858497929396999a508495985054168152019501910192889594928f948b958f61019e565b634e487b7160e01b895260218452602489fd5b5091908060031936011261051a5781359061031e610ad5565b90610327610bbf565b821561050b576001545f1981146104f857600190810180825586526002602090815282872091820180546001600160a01b031916331790556001600160a01b0390931694856103d957670de0b6b3a7640000340485036103cb575090600282857fe11397742931cf8ec8fb96d1509ea9d345485ebbf4b4097cdb268fb4f8ec804b94555b0180546001600160a81b0319168617905551858152339290a46001815580f35b825163356680b760e01b8152fd5b82516370a0823160e01b8152338282015284816024818a5afa9081156104bd5790869189916104c7575b5010801561044f575b61043e575090600282857fe11397742931cf8ec8fb96d1509ea9d345485ebbf4b4097cdb268fb4f8ec804b94556103ab565b82516001622e27f760e11b03198152fd5b508251636eb1769f60e11b8152338282015230602482015284816044818a5afa9081156104bd579086918991610488575b50141561040c565b809250868092503d83116104b6575b6104a18183610b3b565b810103126104b2578590515f610480565b8780fd5b503d610497565b84513d8a823e3d90fd5b809250868092503d83116104f1575b6104e08183610b3b565b810103126104b2578590515f610403565b503d6104d6565b634e487b7160e01b865260118552602486fd5b5163162908e360e11b81528390fd5b8280fd5b50346100e057816003193601126100e0576024359067ffffffffffffffff82116100e0575060209261055661055d9236908301610b79565b9035610c72565b90516001600160a01b039091168152f35b5091903461051a578060031936011261051a5781359061058c610bbf565b6001928284541061077d578285526020906002825282862083516105af81610aef565b8154815260018060a01b03908188840154169085810191825260ff60028501548481168984015260a01c16936060820194600281101561076a578b929187918752600381018a51908d828c835491828152019288528c8089209289915b83831061074057505050505081610624910382610b3b565b608084015201885190819384928a835491828152019282528d8b832092905b8c83831061072a57505050505060a0929161065f910384610b3b565b01525116331461071b5784875260038352838720338852835260ff848820541661070c575160028110156106f9576106eb578386526003825282862033875282528286208560ff198254161790558386528152818520903386525260243590842055337f7e1b42d795bbf83a2002a8154af05e39477fc48963aa388d575a1a7cdd6d34af8480a3815580f35b82516331da482760e11b8152fd5b634e487b7160e01b875260218252602487fd5b508251630ea075bf60e21b8152fd5b508251633482e86160e21b8152fd5b845486528896509094019392830192018e610643565b919490939698995083929597508b87541681520194019101908f96959391928f938c96948e61060c565b634e487b7160e01b8c526021875260248cfd5b9051637897c72360e01b8152fd5b509034610a6e576060366003190112610a6e5760249267ffffffffffffffff918135908535848111610a6a576107c49036908501610b79565b6001600160a01b036044358181169690959291878703610a66576107e6610bbf565b85895260209660028852858a2093600285019182549160ff8360a01c166002811015610a5457610a44578460018801541691823303610a34578a8e5260038c52898e208d8f528c52898e205460ff1615610a245760ff60a01b198416600160a01b1785558a8e52888c52898e208d8f528c52898e20548a5160609290921b6bffffffffffffffffffffffff1916828e01908152603480840192909252908252869261089f9290919061089781610b1f565b519020610c72565b1603610a1457821615610991579089929154169254908551908882019263a9059cbb60e01b84528a8d84015260448301526044825260808201908282109082111761097f57865251610902929182919082865af16108fb610be0565b9083610c0f565b805186811515918261095e575b5050905061094b5750507f221c08a06b07a64803b3787861a3f276212fcccb51c2e6234077a9b8cb13047a939495505b51908152a26001815580f35b87925191635274afe760e01b8352820152fd5b83809293500103126104b2578501518015908115036104b25780865f61090f565b634e487b7160e01b8452604186528b84fd5b5050509690965490670de0b6b3a764000091828102928184041490151715610a0357508580808093885af16109c4610be0565b50156109f4577f221c08a06b07a64803b3787861a3f276212fcccb51c2e6234077a9b8cb13047a9394955061093f565b516317f2c34560e31b81528590fd5b634e487b7160e01b87526011885286fd5b86516308a24ab560e31b81528690fd5b8951633f165a6160e21b81528990fd5b8951635ec8235160e01b81528990fd5b88516331da482760e11b81528890fd5b634e487b7160e01b8e52602189528e8efd5b8880fd5b8580fd5b5080fd5b50913461051a578160031936011261051a578160209360ff92610a93610ad5565b90358252600386528282206001600160a01b039091168252855220549151911615158152f35b905034610a6e5781600319360112610a6e576020906001548152f35b602435906001600160a01b0382168203610aeb57565b5f80fd5b60c0810190811067ffffffffffffffff821117610b0b57604052565b634e487b7160e01b5f52604160045260245ffd5b6060810190811067ffffffffffffffff821117610b0b57604052565b90601f8019910116810190811067ffffffffffffffff821117610b0b57604052565b67ffffffffffffffff8111610b0b57601f01601f191660200190565b81601f82011215610aeb57803590610b9082610b5d565b92610b9e6040519485610b3b565b82845260208383010111610aeb57815f926020809301838601378301015290565b60025f5414610bce5760025f55565b604051633ee5aeb560e01b8152600490fd5b3d15610c0a573d90610bf182610b5d565b91610bff6040519384610b3b565b82523d5f602084013e565b606090565b90610c365750805115610c2457805190602001fd5b604051630a12f52160e11b8152600490fd5b81511580610c69575b610c47575090565b604051639996b31560e01b81526001600160a01b039091166004820152602490fd5b50803b15610c3f565b610cc891610cbf9160405160208101917f19457468657265756d205369676e6564204d6573736167653a0a3332000000008352603c820152603c8152610cb781610b1f565b519020610ccb565b90929192610d93565b90565b8151919060418303610cfb57610cf49250602082015190606060408401519301515f1a90610d05565b9192909190565b50505f9160029190565b91907f7fffffffffffffffffffffffffffffff5d576e7357a4501ddfe92f46681b20a08411610d8857926020929160ff6080956040519485521684840152604083015260608201525f92839182805260015afa15610d7c5780516001600160a01b03811615610d7357918190565b50809160019190565b604051903d90823e3d90fd5b5050505f9160039190565b6004811015610e025780610da5575050565b60018103610dbf5760405163f645eedf60e01b8152600490fd5b60028103610de05760405163fce698f760e01b815260048101839052602490fd5b600314610dea5750565b602490604051906335e2f38360e21b82526004820152fd5b634e487b7160e01b5f52602160045260245ffdfea2646970667358221220109cd0e56518a7bd80bdb04e5d5006a5c2e4dda946c9aa69ccf2cfc6891b3dd164736f6c63430008140033",
  "linkReferences": {},
  "deployedLinkReferences": {}
}