{"contracts/OffchainTrade.sol":{"OffchainTrade":{"abi":[{"inputs":[{"internalType":"address","name":"target","type":"address"}],"name":"AddressEmptyCode","type":"error"},{"inputs":[{"internalType":"address","name":"account","type":"address"}],"name":"AddressInsufficientBalance","type":"error"},{"inputs":[],"name":"AllowanceCheckFailed","type":"error"},{"inputs":[],"name":"AlreadyRegistered","type":"error"},{"inputs":[],"name":"AlreadyReleased","type":"error"},{"inputs":[],"name":"BuyerNotRegistered","type":"error"},{"inputs":[],"name":"ECDSAInvalidSignature","type":"error"},{"inputs":[{"internalType":"uint256","name":"length","type":"uint256"}],"name":"ECDSAInvalidSignatureLength","type":"error"},{"inputs":[{"internalType":"bytes32","name":"s","type":"bytes32"}],"name":"ECDSAInvalidSignatureS","type":"error"},{"inputs":[],"name":"FailedInnerCall","type":"error"},{"inputs":[],"name":"InsufficientFunds","type":"error"},{"inputs":[],"name":"InvalidAmount","type":"error"},{"inputs":[],"name":"NotSeller","type":"error"},{"inputs":[],"name":"OrderIdNotExist","type":"error"},{"inputs":[],"name":"ReentrancyGuardReentrantCall","type":"error"},{"inputs":[{"internalType":"address","name":"token","type":"address"}],"name":"SafeERC20FailedOperation","type":"error"},{"inputs":[],"name":"SellersCantRegister","type":"error"},{"inputs":[],"name":"TransactionFailed","type":"error"},{"inputs":[],"name":"WrongSellerAddress","type":"error"},{"anonymous":false,"inputs":[{"indexed":true,"internalType":"address","name":"buyer","type":"address"},{"indexed":false,"internalType":"uint256","name":"orderId","type":"uint256"}],"name":"FundsReleased","type":"event"},{"anonymous":false,"inputs":[{"indexed":true,"internalType":"address","name":"seller","type":"address"},{"indexed":true,"internalType":"uint256","name":"amount","type":"uint256"},{"indexed":true,"internalType":"address","name":"token","type":"address"},{"indexed":false,"internalType":"enum OrderStatus","name":"status","type":"uint8"}],"name":"OrderListed","type":"event"},{"anonymous":false,"inputs":[{"indexed":true,"internalType":"address","name":"buyer","type":"address"},{"indexed":true,"internalType":"uint256","name":"orderId","type":"uint256"}],"name":"RegisterAsBuyer","type":"event"},{"inputs":[{"internalType":"uint256","name":"_orderId","type":"uint256"},{"internalType":"address","name":"_buyer","type":"address"}],"name":"getMessages","outputs":[{"internalType":"uint256","name":"_message","type":"uint256"}],"stateMutability":"view","type":"function"},{"inputs":[{"internalType":"uint256","name":"_orderId","type":"uint256"}],"name":"getOrderDetails","outputs":[{"components":[{"internalType":"uint256","name":"amount","type":"uint256"},{"internalType":"address","name":"seller","type":"address"},{"internalType":"address","name":"token","type":"address"},{"internalType":"enum OrderStatus","name":"status","type":"uint8"},{"internalType":"address[]","name":"buyers","type":"address[]"},{"internalType":"uint256[]","name":"messages","type":"uint256[]"}],"internalType":"struct OffchainTrade.Order","name":"order","type":"tuple"}],"stateMutability":"view","type":"function"},{"inputs":[{"internalType":"uint256","name":"_orderId","type":"uint256"}],"name":"getOrderStatus","outputs":[{"internalType":"enum OrderStatus","name":"status","type":"uint8"}],"stateMutability":"view","type":"function"},{"inputs":[{"internalType":"uint256","name":"","type":"uint256"},{"internalType":"address","name":"","type":"address"}],"name":"isBuyerRegistered","outputs":[{"internalType":"bool","name":"","type":"bool"}],"stateMutability":"view","type":"function"},{"inputs":[{"internalType":"uint256","name":"_amount","type":"uint256"},{"internalType":"address","name":"_token","type":"address"}],"name":"listOrderAsSeller","outputs":[],"stateMutability":"payable","type":"function"},{"inputs":[{"internalType":"bytes32","name":"_hash","type":"bytes32"},{"internalType":"bytes","name":"_sign","type":"bytes"}],"name":"recoverSignedAddress","outputs":[{"internalType":"address","name":"recoveredAddress","type":"address"}],"stateMutability":"pure","type":"function"},{"inputs":[{"internalType":"uint256","name":"_orderId","type":"uint256"},{"internalType":"uint256","name":"_message","type":"uint256"}],"name":"registerAsBuyer","outputs":[],"stateMutability":"nonpayable","type":"function"},{"inputs":[{"internalType":"uint256","name":"_orderId","type":"uint256"},{"internalType":"bytes","name":"_sign","type":"bytes"},{"internalType":"address","name":"_buyer","type":"address"}],"name":"releaseFunds","outputs":[],"stateMutability":"nonpayable","type":"function"},{"inputs":[],"name":"totalOrders","outputs":[{"internalType":"uint256","name":"","type":"uint256"}],"stateMutability":"view","type":"function"}],"evm":{"bytecode":{"linkReferences":{},"object":"6080806040523461001a5760015f55610f80908161001f8239f35b5f80fdfe6080604081815260049182361015610015575f80fd5b5f90813560e01c9081631d83440914610be05750806345fa8aae14610a9057806355caccce14610a4957806381a41611146107665780639e368a2914610549578063ae4af9ea146104f9578063b1b4c558146102e0578063ec7dd7bb146100ee5763fd76554a14610084575f80fd5b346100eb57816003193601126100eb57823561009e610c1d565b81835260026020528383206001015490916001600160a01b0391821633036100db5783526020948552838320911682528352819020549051908152f35b8451635ec8235160e01b81528690fd5b80fd5b50346100eb57602091826003193601126102dc57606060a0825161011181610c37565b8481528486820152848482015284838201528260808201520152833582526002835280822090805161014281610c37565b8254815260018060a01b03926001968488830154169387840194855260028301549060ff81860192888116845260a01c1692606086019360028110156102c957849b9998969b526003850194825195868c82549182815201918b528c8b20908b5b8181106102b457505050866101b9910387610c83565b60808c019586520195815196878b82549182815201918a528b8a20908a5b8181106102a1575050509286959492868998936101fb8e9f9b61022a98038b610c83565b60a08b01998a5282518e819f825260e082019c519101525116908c0152511660608a0152516080890190610bfc565b519260c060a0880152835180915287610100880194019185905b82821061028a57505050505194601f198583030160c08601528080875193848152019601925b8281106102775785870386f35b835187529581019592810192840161026a565b835181168652948901949289019290870190610244565b82548452928d0192918c01918c016101d7565b82548b168452928e0192918d01918d016101a3565b634e487b7160e01b8a526021825260248afd5b5080fd5b509190806003193601126104f5578135906102f9610c1d565b90610302610d07565b82156104e6576001545f1981146104d357600190810180825586526002602090815282872091820180546001600160a01b031916331790556001600160a01b0390931694856103b457670de0b6b3a7640000340485036103a6575090600282857fe11397742931cf8ec8fb96d1509ea9d345485ebbf4b4097cdb268fb4f8ec804b94555b0180546001600160a81b0319168617905551858152339290a46001815580f35b825163356680b760e01b8152fd5b82516370a0823160e01b8152338282015284816024818a5afa9081156104985790869189916104a2575b5010801561042a575b610419575090600282857fe11397742931cf8ec8fb96d1509ea9d345485ebbf4b4097cdb268fb4f8ec804b9455610386565b82516001622e27f760e11b03198152fd5b508251636eb1769f60e11b8152338282015230602482015284816044818a5afa908115610498579086918991610463575b5014156103e7565b809250868092503d8311610491575b61047c8183610c83565b8101031261048d578590515f61045b565b8780fd5b503d610472565b84513d8a823e3d90fd5b809250868092503d83116104cc575b6104bb8183610c83565b8101031261048d578590515f6103de565b503d6104b1565b634e487b7160e01b865260118552602486fd5b5163162908e360e11b81528390fd5b8280fd5b50346100eb57816003193601126100eb576024359067ffffffffffffffff82116100eb57506020926105316105389236908301610cc1565b9035610dba565b90516001600160a01b039091168152f35b509190346104f557806003193601126104f557813590610567610d07565b600192828454106107585782855260209060028252828620835161058a81610c37565b8154815260018060a01b03908188840154169085810191825260ff60028501548481168984015260a01c169360608201946002811015610745578b929187918752600381018a51908d828c835491828152019288528c8089209289915b83831061071b575050505050816105ff910382610c83565b608084015201885190819384928a835491828152019282528d8b832092905b8c83831061070557505050505060a0929161063a910384610c83565b0152511633146106f65784875260038352838720338852835260ff84882054166106e7575160028110156106d4576106c6578386526003825282862033875282528286208560ff198254161790558386528152818520903386525260243590842055337f7e1b42d795bbf83a2002a8154af05e39477fc48963aa388d575a1a7cdd6d34af8480a3815580f35b82516331da482760e11b8152fd5b634e487b7160e01b875260218252602487fd5b508251630ea075bf60e21b8152fd5b508251633482e86160e21b8152fd5b845486528896509094019392830192018e61061e565b919490939698995083929597508b87541681520194019101908f96959391928f938c96948e6105e7565b634e487b7160e01b8c526021875260248cfd5b9051637897c72360e01b8152fd5b5090346102dc5760603660031901126102dc5760249267ffffffffffffffff918135908535848111610a455761079f9036908501610cc1565b6001600160a01b036044358181169690959291878703610a41576107c1610d07565b85895260209660028852858a2093600285019182549160ff8360a01c166002811015610a2f57610a1f578460018801541691823303610a0f578a8e5260038c52898e208d8f528c52898e205460ff16156109ff5760ff60a01b198416600160a01b1785558a8e52888c52898e208d8f528c52898e20548a5160609290921b6bffffffffffffffffffffffff1916828e01908152603480840192909252908252869261087a9290919061087281610c67565b519020610dba565b16036109ef5782161561096c579089929154169254908551908882019263a9059cbb60e01b84528a8d84015260448301526044825260808201908282109082111761095a578652516108dd929182919082865af16108d6610d28565b9083610d57565b8051868115159182610939575b505090506109265750507f221c08a06b07a64803b3787861a3f276212fcccb51c2e6234077a9b8cb13047a939495505b51908152a26001815580f35b87925191635274afe760e01b8352820152fd5b838092935001031261048d5785015180159081150361048d5780865f6108ea565b634e487b7160e01b8452604186528b84fd5b5050509690965490670de0b6b3a7640000918281029281840414901517156109de57508580808093885af161099f610d28565b50156109cf577f221c08a06b07a64803b3787861a3f276212fcccb51c2e6234077a9b8cb13047a9394955061091a565b516317f2c34560e31b81528590fd5b634e487b7160e01b87526011885286fd5b86516308a24ab560e31b81528690fd5b8951633f165a6160e21b81528990fd5b8951635ec8235160e01b81528990fd5b88516331da482760e11b81528890fd5b634e487b7160e01b8e52602189528e8efd5b8880fd5b8580fd5b5091346104f557816003193601126104f5578160209360ff92610a6a610c1d565b90358252600386528282206001600160a01b039091168252855220549151911615158152f35b509190346104f557602092836003193601126100eb578235815260028452818120825190610abd82610c37565b8054825260018060a01b03916001918383820154168883015260ff60028201548581168885015260a01c169360608301946002811015610bcd57855286516003830180548083529088528a88209495948a94938c840192908a908e5b838310610bb257505050505081610b31910382610c83565b60808501520191855191829384918a825495868152019188528a882090885b8c878210610b9c575050505060a0935090610b6c910384610c83565b015251926002841015610b89575050610b8790518092610bfc565bf35b634e487b7160e01b825260219052602490fd5b8354855288955090930192918101918101610b50565b8454821686528e98509094019392880192908801908e610b19565b634e487b7160e01b875260218952602487fd5b9050346102dc57816003193601126102dc576020906001548152f35b906002821015610c095752565b634e487b7160e01b5f52602160045260245ffd5b602435906001600160a01b0382168203610c3357565b5f80fd5b60c0810190811067ffffffffffffffff821117610c5357604052565b634e487b7160e01b5f52604160045260245ffd5b6060810190811067ffffffffffffffff821117610c5357604052565b90601f8019910116810190811067ffffffffffffffff821117610c5357604052565b67ffffffffffffffff8111610c5357601f01601f191660200190565b81601f82011215610c3357803590610cd882610ca5565b92610ce66040519485610c83565b82845260208383010111610c3357815f926020809301838601378301015290565b60025f5414610d165760025f55565b604051633ee5aeb560e01b8152600490fd5b3d15610d52573d90610d3982610ca5565b91610d476040519384610c83565b82523d5f602084013e565b606090565b90610d7e5750805115610d6c57805190602001fd5b604051630a12f52160e11b8152600490fd5b81511580610db1575b610d8f575090565b604051639996b31560e01b81526001600160a01b039091166004820152602490fd5b50803b15610d87565b610e1091610e079160405160208101917f19457468657265756d205369676e6564204d6573736167653a0a3332000000008352603c820152603c8152610dff81610c67565b519020610e13565b90929192610edb565b90565b8151919060418303610e4357610e3c9250602082015190606060408401519301515f1a90610e4d565b9192909190565b50505f9160029190565b91907f7fffffffffffffffffffffffffffffff5d576e7357a4501ddfe92f46681b20a08411610ed057926020929160ff6080956040519485521684840152604083015260608201525f92839182805260015afa15610ec45780516001600160a01b03811615610ebb57918190565b50809160019190565b604051903d90823e3d90fd5b5050505f9160039190565b6004811015610c095780610eed575050565b60018103610f075760405163f645eedf60e01b8152600490fd5b60028103610f285760405163fce698f760e01b815260048101839052602490fd5b600314610f325750565b602490604051906335e2f38360e21b82526004820152fdfea2646970667358221220c9a362a1ec1fbbd643e519739aa0ae15daa180fa000ac311990dc15b97f7e3f964736f6c63430008140033","opcodes":"PUSH1 0x80 DUP1 PUSH1 0x40 MSTORE CALLVALUE PUSH2 0x1A JUMPI PUSH1 0x1 PUSH0 SSTORE PUSH2 0xF80 SWAP1 DUP2 PUSH2 0x1F DUP3 CODECOPY RETURN JUMPDEST PUSH0 DUP1 REVERT INVALID PUSH1 0x80 PUSH1 0x40 DUP2 DUP2 MSTORE PUSH1 0x4 SWAP2 DUP3 CALLDATASIZE LT ISZERO PUSH2 0x15 JUMPI PUSH0 DUP1 REVERT JUMPDEST PUSH0 SWAP1 DUP2 CALLDATALOAD PUSH1 0xE0 SHR SWAP1 DUP2 PUSH4 0x1D834409 EQ PUSH2 0xBE0 JUMPI POP DUP1 PUSH4 0x45FA8AAE EQ PUSH2 0xA90 JUMPI DUP1 PUSH4 0x55CACCCE EQ PUSH2 0xA49 JUMPI DUP1 PUSH4 0x81A41611 EQ PUSH2 0x766 JUMPI DUP1 PUSH4 0x9E368A29 EQ PUSH2 0x549 JUMPI DUP1 PUSH4 0xAE4AF9EA EQ PUSH2 0x4F9 JUMPI DUP1 PUSH4 0xB1B4C558 EQ PUSH2 0x2E0 JUMPI DUP1 PUSH4 0xEC7DD7BB EQ PUSH2 0xEE JUMPI PUSH4 0xFD76554A EQ PUSH2 0x84 JUMPI PUSH0 DUP1 REVERT JUMPDEST CALLVALUE PUSH2 0xEB JUMPI DUP2 PUSH1 0x3 NOT CALLDATASIZE ADD SLT PUSH2 0xEB JUMPI DUP3 CALLDATALOAD PUSH2 0x9E PUSH2 0xC1D JUMP JUMPDEST DUP2 DUP4 MSTORE PUSH1 0x2 PUSH1 0x20 MSTORE DUP4 DUP4 KECCAK256 PUSH1 0x1 ADD SLOAD SWAP1 SWAP2 PUSH1 0x1 PUSH1 0x1 PUSH1 0xA0 SHL SUB SWAP2 DUP3 AND CALLER SUB PUSH2 0xDB JUMPI DUP4 MSTORE PUSH1 0x20 SWAP5 DUP6 MSTORE DUP4 DUP4 KECCAK256 SWAP2 AND DUP3 MSTORE DUP4 MSTORE DUP2 SWAP1 KECCAK256 SLOAD SWAP1 MLOAD SWAP1 DUP2 MSTORE RETURN JUMPDEST DUP5 MLOAD PUSH4 0x5EC82351 PUSH1 0xE0 SHL DUP2 MSTORE DUP7 SWAP1 REVERT JUMPDEST DUP1 REVERT JUMPDEST POP CALLVALUE PUSH2 0xEB JUMPI PUSH1 0x20 SWAP2 DUP3 PUSH1 0x3 NOT CALLDATASIZE ADD SLT PUSH2 0x2DC JUMPI PUSH1 0x60 PUSH1 0xA0 DUP3 MLOAD PUSH2 0x111 DUP2 PUSH2 0xC37 JUMP JUMPDEST DUP5 DUP2 MSTORE DUP5 DUP7 DUP3 ADD MSTORE DUP5 DUP5 DUP3 ADD MSTORE DUP5 DUP4 DUP3 ADD MSTORE DUP3 PUSH1 0x80 DUP3 ADD MSTORE ADD MSTORE DUP4 CALLDATALOAD DUP3 MSTORE PUSH1 0x2 DUP4 MSTORE DUP1 DUP3 KECCAK256 SWAP1 DUP1 MLOAD PUSH2 0x142 DUP2 PUSH2 0xC37 JUMP JUMPDEST DUP3 SLOAD DUP2 MSTORE PUSH1 0x1 DUP1 PUSH1 0xA0 SHL SUB SWAP3 PUSH1 0x1 SWAP7 DUP5 DUP9 DUP4 ADD SLOAD AND SWAP4 DUP8 DUP5 ADD SWAP5 DUP6 MSTORE PUSH1 0x2 DUP4 ADD SLOAD SWAP1 PUSH1 0xFF DUP2 DUP7 ADD SWAP3 DUP9 DUP2 AND DUP5 MSTORE PUSH1 0xA0 SHR AND SWAP3 PUSH1 0x60 DUP7 ADD SWAP4 PUSH1 0x2 DUP2 LT ISZERO PUSH2 0x2C9 JUMPI DUP5 SWAP12 SWAP10 SWAP9 SWAP7 SWAP12 MSTORE PUSH1 0x3 DUP6 ADD SWAP5 DUP3 MLOAD SWAP6 DUP7 DUP13 DUP3 SLOAD SWAP2 DUP3 DUP2 MSTORE ADD SWAP2 DUP12 MSTORE DUP13 DUP12 KECCAK256 SWAP1 DUP12 JUMPDEST DUP2 DUP2 LT PUSH2 0x2B4 JUMPI POP POP POP DUP7 PUSH2 0x1B9 SWAP2 SUB DUP8 PUSH2 0xC83 JUMP JUMPDEST PUSH1 0x80 DUP13 ADD SWAP6 DUP7 MSTORE ADD SWAP6 DUP2 MLOAD SWAP7 DUP8 DUP12 DUP3 SLOAD SWAP2 DUP3 DUP2 MSTORE ADD SWAP2 DUP11 MSTORE DUP12 DUP11 KECCAK256 SWAP1 DUP11 JUMPDEST DUP2 DUP2 LT PUSH2 0x2A1 JUMPI POP POP POP SWAP3 DUP7 SWAP6 SWAP5 SWAP3 DUP7 DUP10 SWAP9 SWAP4 PUSH2 0x1FB DUP15 SWAP16 SWAP12 PUSH2 0x22A SWAP9 SUB DUP12 PUSH2 0xC83 JUMP JUMPDEST PUSH1 0xA0 DUP12 ADD SWAP10 DUP11 MSTORE DUP3 MLOAD DUP15 DUP2 SWAP16 DUP3 MSTORE PUSH1 0xE0 DUP3 ADD SWAP13 MLOAD SWAP2 ADD MSTORE MLOAD AND SWAP1 DUP13 ADD MSTORE MLOAD AND PUSH1 0x60 DUP11 ADD MSTORE MLOAD PUSH1 0x80 DUP10 ADD SWAP1 PUSH2 0xBFC JUMP JUMPDEST MLOAD SWAP3 PUSH1 0xC0 PUSH1 0xA0 DUP9 ADD MSTORE DUP4 MLOAD DUP1 SWAP2 MSTORE DUP8 PUSH2 0x100 DUP9 ADD SWAP5 ADD SWAP2 DUP6 SWAP1 JUMPDEST DUP3 DUP3 LT PUSH2 0x28A JUMPI POP POP POP POP MLOAD SWAP5 PUSH1 0x1F NOT DUP6 DUP4 SUB ADD PUSH1 0xC0 DUP7 ADD MSTORE DUP1 DUP1 DUP8 MLOAD SWAP4 DUP5 DUP2 MSTORE ADD SWAP7 ADD SWAP3 JUMPDEST DUP3 DUP2 LT PUSH2 0x277 JUMPI DUP6 DUP8 SUB DUP7 RETURN JUMPDEST DUP4 MLOAD DUP8 MSTORE SWAP6 DUP2 ADD SWAP6 SWAP3 DUP2 ADD SWAP3 DUP5 ADD PUSH2 0x26A JUMP JUMPDEST DUP4 MLOAD DUP2 AND DUP7 MSTORE SWAP5 DUP10 ADD SWAP5 SWAP3 DUP10 ADD SWAP3 SWAP1 DUP8 ADD SWAP1 PUSH2 0x244 JUMP JUMPDEST DUP3 SLOAD DUP5 MSTORE SWAP3 DUP14 ADD SWAP3 SWAP2 DUP13 ADD SWAP2 DUP13 ADD PUSH2 0x1D7 JUMP JUMPDEST DUP3 SLOAD DUP12 AND DUP5 MSTORE SWAP3 DUP15 ADD SWAP3 SWAP2 DUP14 ADD SWAP2 DUP14 ADD PUSH2 0x1A3 JUMP JUMPDEST PUSH4 0x4E487B71 PUSH1 0xE0 SHL DUP11 MSTORE PUSH1 0x21 DUP3 MSTORE PUSH1 0x24 DUP11 REVERT JUMPDEST POP DUP1 REVERT JUMPDEST POP SWAP2 SWAP1 DUP1 PUSH1 0x3 NOT CALLDATASIZE ADD SLT PUSH2 0x4F5 JUMPI DUP2 CALLDATALOAD SWAP1 PUSH2 0x2F9 PUSH2 0xC1D JUMP JUMPDEST SWAP1 PUSH2 0x302 PUSH2 0xD07 JUMP JUMPDEST DUP3 ISZERO PUSH2 0x4E6 JUMPI PUSH1 0x1 SLOAD PUSH0 NOT DUP2 EQ PUSH2 0x4D3 JUMPI PUSH1 0x1 SWAP1 DUP2 ADD DUP1 DUP3 SSTORE DUP7 MSTORE PUSH1 0x2 PUSH1 0x20 SWAP1 DUP2 MSTORE DUP3 DUP8 KECCAK256 SWAP2 DUP3 ADD DUP1 SLOAD PUSH1 0x1 PUSH1 0x1 PUSH1 0xA0 SHL SUB NOT AND CALLER OR SWAP1 SSTORE PUSH1 0x1 PUSH1 0x1 PUSH1 0xA0 SHL SUB SWAP1 SWAP4 AND SWAP5 DUP6 PUSH2 0x3B4 JUMPI PUSH8 0xDE0B6B3A7640000 CALLVALUE DIV DUP6 SUB PUSH2 0x3A6 JUMPI POP SWAP1 PUSH1 0x2 DUP3 DUP6 PUSH32 0xE11397742931CF8EC8FB96D1509EA9D345485EBBF4B4097CDB268FB4F8EC804B SWAP5 SSTORE JUMPDEST ADD DUP1 SLOAD PUSH1 0x1 PUSH1 0x1 PUSH1 0xA8 SHL SUB NOT AND DUP7 OR SWAP1 SSTORE MLOAD DUP6 DUP2 MSTORE CALLER SWAP3 SWAP1 LOG4 PUSH1 0x1 DUP2 SSTORE DUP1 RETURN JUMPDEST DUP3 MLOAD PUSH4 0x356680B7 PUSH1 0xE0 SHL DUP2 MSTORE REVERT JUMPDEST DUP3 MLOAD PUSH4 0x70A08231 PUSH1 0xE0 SHL DUP2 MSTORE CALLER DUP3 DUP3 ADD MSTORE DUP5 DUP2 PUSH1 0x24 DUP2 DUP11 GAS STATICCALL SWAP1 DUP2 ISZERO PUSH2 0x498 JUMPI SWAP1 DUP7 SWAP2 DUP10 SWAP2 PUSH2 0x4A2 JUMPI JUMPDEST POP LT DUP1 ISZERO PUSH2 0x42A JUMPI JUMPDEST PUSH2 0x419 JUMPI POP SWAP1 PUSH1 0x2 DUP3 DUP6 PUSH32 0xE11397742931CF8EC8FB96D1509EA9D345485EBBF4B4097CDB268FB4F8EC804B SWAP5 SSTORE PUSH2 0x386 JUMP JUMPDEST DUP3 MLOAD PUSH1 0x1 PUSH3 0x2E27F7 PUSH1 0xE1 SHL SUB NOT DUP2 MSTORE REVERT JUMPDEST POP DUP3 MLOAD PUSH4 0x6EB1769F PUSH1 0xE1 SHL DUP2 MSTORE CALLER DUP3 DUP3 ADD MSTORE ADDRESS PUSH1 0x24 DUP3 ADD MSTORE DUP5 DUP2 PUSH1 0x44 DUP2 DUP11 GAS STATICCALL SWAP1 DUP2 ISZERO PUSH2 0x498 JUMPI SWAP1 DUP7 SWAP2 DUP10 SWAP2 PUSH2 0x463 JUMPI JUMPDEST POP EQ ISZERO PUSH2 0x3E7 JUMP JUMPDEST DUP1 SWAP3 POP DUP7 DUP1 SWAP3 POP RETURNDATASIZE DUP4 GT PUSH2 0x491 JUMPI JUMPDEST PUSH2 0x47C DUP2 DUP4 PUSH2 0xC83 JUMP JUMPDEST DUP2 ADD SUB SLT PUSH2 0x48D JUMPI DUP6 SWAP1 MLOAD PUSH0 PUSH2 0x45B JUMP JUMPDEST DUP8 DUP1 REVERT JUMPDEST POP RETURNDATASIZE PUSH2 0x472 JUMP JUMPDEST DUP5 MLOAD RETURNDATASIZE DUP11 DUP3 RETURNDATACOPY RETURNDATASIZE SWAP1 REVERT JUMPDEST DUP1 SWAP3 POP DUP7 DUP1 SWAP3 POP RETURNDATASIZE DUP4 GT PUSH2 0x4CC JUMPI JUMPDEST PUSH2 0x4BB DUP2 DUP4 PUSH2 0xC83 JUMP JUMPDEST DUP2 ADD SUB SLT PUSH2 0x48D JUMPI DUP6 SWAP1 MLOAD PUSH0 PUSH2 0x3DE JUMP JUMPDEST POP RETURNDATASIZE PUSH2 0x4B1 JUMP JUMPDEST PUSH4 0x4E487B71 PUSH1 0xE0 SHL DUP7 MSTORE PUSH1 0x11 DUP6 MSTORE PUSH1 0x24 DUP7 REVERT JUMPDEST MLOAD PUSH4 0x162908E3 PUSH1 0xE1 SHL DUP2 MSTORE DUP4 SWAP1 REVERT JUMPDEST DUP3 DUP1 REVERT JUMPDEST POP CALLVALUE PUSH2 0xEB JUMPI DUP2 PUSH1 0x3 NOT CALLDATASIZE ADD SLT PUSH2 0xEB JUMPI PUSH1 0x24 CALLDATALOAD SWAP1 PUSH8 0xFFFFFFFFFFFFFFFF DUP3 GT PUSH2 0xEB JUMPI POP PUSH1 0x20 SWAP3 PUSH2 0x531 PUSH2 0x538 SWAP3 CALLDATASIZE SWAP1 DUP4 ADD PUSH2 0xCC1 JUMP JUMPDEST SWAP1 CALLDATALOAD PUSH2 0xDBA JUMP JUMPDEST SWAP1 MLOAD PUSH1 0x1 PUSH1 0x1 PUSH1 0xA0 SHL SUB SWAP1 SWAP2 AND DUP2 MSTORE RETURN JUMPDEST POP SWAP2 SWAP1 CALLVALUE PUSH2 0x4F5 JUMPI DUP1 PUSH1 0x3 NOT CALLDATASIZE ADD SLT PUSH2 0x4F5 JUMPI DUP2 CALLDATALOAD SWAP1 PUSH2 0x567 PUSH2 0xD07 JUMP JUMPDEST PUSH1 0x1 SWAP3 DUP3 DUP5 SLOAD LT PUSH2 0x758 JUMPI DUP3 DUP6 MSTORE PUSH1 0x20 SWAP1 PUSH1 0x2 DUP3 MSTORE DUP3 DUP7 KECCAK256 DUP4 MLOAD PUSH2 0x58A DUP2 PUSH2 0xC37 JUMP JUMPDEST DUP2 SLOAD DUP2 MSTORE PUSH1 0x1 DUP1 PUSH1 0xA0 SHL SUB SWAP1 DUP2 DUP9 DUP5 ADD SLOAD AND SWAP1 DUP6 DUP2 ADD SWAP2 DUP3 MSTORE PUSH1 0xFF PUSH1 0x2 DUP6 ADD SLOAD DUP5 DUP2 AND DUP10 DUP5 ADD MSTORE PUSH1 0xA0 SHR AND SWAP4 PUSH1 0x60 DUP3 ADD SWAP5 PUSH1 0x2 DUP2 LT ISZERO PUSH2 0x745 JUMPI DUP12 SWAP3 SWAP2 DUP8 SWAP2 DUP8 MSTORE PUSH1 0x3 DUP2 ADD DUP11 MLOAD SWAP1 DUP14 DUP3 DUP13 DUP4 SLOAD SWAP2 DUP3 DUP2 MSTORE ADD SWAP3 DUP9 MSTORE DUP13 DUP1 DUP10 KECCAK256 SWAP3 DUP10 SWAP2 JUMPDEST DUP4 DUP4 LT PUSH2 0x71B JUMPI POP POP POP POP POP DUP2 PUSH2 0x5FF SWAP2 SUB DUP3 PUSH2 0xC83 JUMP JUMPDEST PUSH1 0x80 DUP5 ADD MSTORE ADD DUP9 MLOAD SWAP1 DUP2 SWAP4 DUP5 SWAP3 DUP11 DUP4 SLOAD SWAP2 DUP3 DUP2 MSTORE ADD SWAP3 DUP3 MSTORE DUP14 DUP12 DUP4 KECCAK256 SWAP3 SWAP1 JUMPDEST DUP13 DUP4 DUP4 LT PUSH2 0x705 JUMPI POP POP POP POP POP PUSH1 0xA0 SWAP3 SWAP2 PUSH2 0x63A SWAP2 SUB DUP5 PUSH2 0xC83 JUMP JUMPDEST ADD MSTORE MLOAD AND CALLER EQ PUSH2 0x6F6 JUMPI DUP5 DUP8 MSTORE PUSH1 0x3 DUP4 MSTORE DUP4 DUP8 KECCAK256 CALLER DUP9 MSTORE DUP4 MSTORE PUSH1 0xFF DUP5 DUP9 KECCAK256 SLOAD AND PUSH2 0x6E7 JUMPI MLOAD PUSH1 0x2 DUP2 LT ISZERO PUSH2 0x6D4 JUMPI PUSH2 0x6C6 JUMPI DUP4 DUP7 MSTORE PUSH1 0x3 DUP3 MSTORE DUP3 DUP7 KECCAK256 CALLER DUP8 MSTORE DUP3 MSTORE DUP3 DUP7 KECCAK256 DUP6 PUSH1 0xFF NOT DUP3 SLOAD AND OR SWAP1 SSTORE DUP4 DUP7 MSTORE DUP2 MSTORE DUP2 DUP6 KECCAK256 SWAP1 CALLER DUP7 MSTORE MSTORE PUSH1 0x24 CALLDATALOAD SWAP1 DUP5 KECCAK256 SSTORE CALLER PUSH32 0x7E1B42D795BBF83A2002A8154AF05E39477FC48963AA388D575A1A7CDD6D34AF DUP5 DUP1 LOG3 DUP2 SSTORE DUP1 RETURN JUMPDEST DUP3 MLOAD PUSH4 0x31DA4827 PUSH1 0xE1 SHL DUP2 MSTORE REVERT JUMPDEST PUSH4 0x4E487B71 PUSH1 0xE0 SHL DUP8 MSTORE PUSH1 0x21 DUP3 MSTORE PUSH1 0x24 DUP8 REVERT JUMPDEST POP DUP3 MLOAD PUSH4 0xEA075BF PUSH1 0xE2 SHL DUP2 MSTORE REVERT JUMPDEST POP DUP3 MLOAD PUSH4 0x3482E861 PUSH1 0xE2 SHL DUP2 MSTORE REVERT JUMPDEST DUP5 SLOAD DUP7 MSTORE DUP9 SWAP7 POP SWAP1 SWAP5 ADD SWAP4 SWAP3 DUP4 ADD SWAP3 ADD DUP15 PUSH2 0x61E JUMP JUMPDEST SWAP2 SWAP5 SWAP1 SWAP4 SWAP7 SWAP9 SWAP10 POP DUP4 SWAP3 SWAP6 SWAP8 POP DUP12 DUP8 SLOAD AND DUP2 MSTORE ADD SWAP5 ADD SWAP2 ADD SWAP1 DUP16 SWAP7 SWAP6 SWAP4 SWAP2 SWAP3 DUP16 SWAP4 DUP13 SWAP7 SWAP5 DUP15 PUSH2 0x5E7 JUMP JUMPDEST PUSH4 0x4E487B71 PUSH1 0xE0 SHL DUP13 MSTORE PUSH1 0x21 DUP8 MSTORE PUSH1 0x24 DUP13 REVERT JUMPDEST SWAP1 MLOAD PUSH4 0x7897C723 PUSH1 0xE0 SHL DUP2 MSTORE REVERT JUMPDEST POP SWAP1 CALLVALUE PUSH2 0x2DC JUMPI PUSH1 0x60 CALLDATASIZE PUSH1 0x3 NOT ADD SLT PUSH2 0x2DC JUMPI PUSH1 0x24 SWAP3 PUSH8 0xFFFFFFFFFFFFFFFF SWAP2 DUP2 CALLDATALOAD SWAP1 DUP6 CALLDATALOAD DUP5 DUP2 GT PUSH2 0xA45 JUMPI PUSH2 0x79F SWAP1 CALLDATASIZE SWAP1 DUP6 ADD PUSH2 0xCC1 JUMP JUMPDEST PUSH1 0x1 PUSH1 0x1 PUSH1 0xA0 SHL SUB PUSH1 0x44 CALLDATALOAD DUP2 DUP2 AND SWAP7 SWAP1 SWAP6 SWAP3 SWAP2 DUP8 DUP8 SUB PUSH2 0xA41 JUMPI PUSH2 0x7C1 PUSH2 0xD07 JUMP JUMPDEST DUP6 DUP10 MSTORE PUSH1 0x20 SWAP7 PUSH1 0x2 DUP9 MSTORE DUP6 DUP11 KECCAK256 SWAP4 PUSH1 0x2 DUP6 ADD SWAP2 DUP3 SLOAD SWAP2 PUSH1 0xFF DUP4 PUSH1 0xA0 SHR AND PUSH1 0x2 DUP2 LT ISZERO PUSH2 0xA2F JUMPI PUSH2 0xA1F JUMPI DUP5 PUSH1 0x1 DUP9 ADD SLOAD AND SWAP2 DUP3 CALLER SUB PUSH2 0xA0F JUMPI DUP11 DUP15 MSTORE PUSH1 0x3 DUP13 MSTORE DUP10 DUP15 KECCAK256 DUP14 DUP16 MSTORE DUP13 MSTORE DUP10 DUP15 KECCAK256 SLOAD PUSH1 0xFF AND ISZERO PUSH2 0x9FF JUMPI PUSH1 0xFF PUSH1 0xA0 SHL NOT DUP5 AND PUSH1 0x1 PUSH1 0xA0 SHL OR DUP6 SSTORE DUP11 DUP15 MSTORE DUP9 DUP13 MSTORE DUP10 DUP15 KECCAK256 DUP14 DUP16 MSTORE DUP13 MSTORE DUP10 DUP15 KECCAK256 SLOAD DUP11 MLOAD PUSH1 0x60 SWAP3 SWAP1 SWAP3 SHL PUSH12 0xFFFFFFFFFFFFFFFFFFFFFFFF NOT AND DUP3 DUP15 ADD SWAP1 DUP2 MSTORE PUSH1 0x34 DUP1 DUP5 ADD SWAP3 SWAP1 SWAP3 MSTORE SWAP1 DUP3 MSTORE DUP7 SWAP3 PUSH2 0x87A SWAP3 SWAP1 SWAP2 SWAP1 PUSH2 0x872 DUP2 PUSH2 0xC67 JUMP JUMPDEST MLOAD SWAP1 KECCAK256 PUSH2 0xDBA JUMP JUMPDEST AND SUB PUSH2 0x9EF JUMPI DUP3 AND ISZERO PUSH2 0x96C JUMPI SWAP1 DUP10 SWAP3 SWAP2 SLOAD AND SWAP3 SLOAD SWAP1 DUP6 MLOAD SWAP1 DUP9 DUP3 ADD SWAP3 PUSH4 0xA9059CBB PUSH1 0xE0 SHL DUP5 MSTORE DUP11 DUP14 DUP5 ADD MSTORE PUSH1 0x44 DUP4 ADD MSTORE PUSH1 0x44 DUP3 MSTORE PUSH1 0x80 DUP3 ADD SWAP1 DUP3 DUP3 LT SWAP1 DUP3 GT OR PUSH2 0x95A JUMPI DUP7 MSTORE MLOAD PUSH2 0x8DD SWAP3 SWAP2 DUP3 SWAP2 SWAP1 DUP3 DUP7 GAS CALL PUSH2 0x8D6 PUSH2 0xD28 JUMP JUMPDEST SWAP1 DUP4 PUSH2 0xD57 JUMP JUMPDEST DUP1 MLOAD DUP7 DUP2 ISZERO ISZERO SWAP2 DUP3 PUSH2 0x939 JUMPI JUMPDEST POP POP SWAP1 POP PUSH2 0x926 JUMPI POP POP PUSH32 0x221C08A06B07A64803B3787861A3F276212FCCCB51C2E6234077A9B8CB13047A SWAP4 SWAP5 SWAP6 POP JUMPDEST MLOAD SWAP1 DUP2 MSTORE LOG2 PUSH1 0x1 DUP2 SSTORE DUP1 RETURN JUMPDEST DUP8 SWAP3 MLOAD SWAP2 PUSH4 0x5274AFE7 PUSH1 0xE0 SHL DUP4 MSTORE DUP3 ADD MSTORE REVERT JUMPDEST DUP4 DUP1 SWAP3 SWAP4 POP ADD SUB SLT PUSH2 0x48D JUMPI DUP6 ADD MLOAD DUP1 ISZERO SWAP1 DUP2 ISZERO SUB PUSH2 0x48D JUMPI DUP1 DUP7 PUSH0 PUSH2 0x8EA JUMP JUMPDEST PUSH4 0x4E487B71 PUSH1 0xE0 SHL DUP5 MSTORE PUSH1 0x41 DUP7 MSTORE DUP12 DUP5 REVERT JUMPDEST POP POP POP SWAP7 SWAP1 SWAP7 SLOAD SWAP1 PUSH8 0xDE0B6B3A7640000 SWAP2 DUP3 DUP2 MUL SWAP3 DUP2 DUP5 DIV EQ SWAP1 ISZERO OR ISZERO PUSH2 0x9DE JUMPI POP DUP6 DUP1 DUP1 DUP1 SWAP4 DUP9 GAS CALL PUSH2 0x99F PUSH2 0xD28 JUMP JUMPDEST POP ISZERO PUSH2 0x9CF JUMPI PUSH32 0x221C08A06B07A64803B3787861A3F276212FCCCB51C2E6234077A9B8CB13047A SWAP4 SWAP5 SWAP6 POP PUSH2 0x91A JUMP JUMPDEST MLOAD PUSH4 0x17F2C345 PUSH1 0xE3 SHL DUP2 MSTORE DUP6 SWAP1 REVERT JUMPDEST PUSH4 0x4E487B71 PUSH1 0xE0 SHL DUP8 MSTORE PUSH1 0x11 DUP9 MSTORE DUP7 REVERT JUMPDEST DUP7 MLOAD PUSH4 0x8A24AB5 PUSH1 0xE3 SHL DUP2 MSTORE DUP7 SWAP1 REVERT JUMPDEST DUP10 MLOAD PUSH4 0x3F165A61 PUSH1 0xE2 SHL DUP2 MSTORE DUP10 SWAP1 REVERT JUMPDEST DUP10 MLOAD PUSH4 0x5EC82351 PUSH1 0xE0 SHL DUP2 MSTORE DUP10 SWAP1 REVERT JUMPDEST DUP9 MLOAD PUSH4 0x31DA4827 PUSH1 0xE1 SHL DUP2 MSTORE DUP9 SWAP1 REVERT JUMPDEST PUSH4 0x4E487B71 PUSH1 0xE0 SHL DUP15 MSTORE PUSH1 0x21 DUP10 MSTORE DUP15 DUP15 REVERT JUMPDEST DUP9 DUP1 REVERT JUMPDEST DUP6 DUP1 REVERT JUMPDEST POP SWAP2 CALLVALUE PUSH2 0x4F5 JUMPI DUP2 PUSH1 0x3 NOT CALLDATASIZE ADD SLT PUSH2 0x4F5 JUMPI DUP2 PUSH1 0x20 SWAP4 PUSH1 0xFF SWAP3 PUSH2 0xA6A PUSH2 0xC1D JUMP JUMPDEST SWAP1 CALLDATALOAD DUP3 MSTORE PUSH1 0x3 DUP7 MSTORE DUP3 DUP3 KECCAK256 PUSH1 0x1 PUSH1 0x1 PUSH1 0xA0 SHL SUB SWAP1 SWAP2 AND DUP3 MSTORE DUP6 MSTORE KECCAK256 SLOAD SWAP2 MLOAD SWAP2 AND ISZERO ISZERO DUP2 MSTORE RETURN JUMPDEST POP SWAP2 SWAP1 CALLVALUE PUSH2 0x4F5 JUMPI PUSH1 0x20 SWAP3 DUP4 PUSH1 0x3 NOT CALLDATASIZE ADD SLT PUSH2 0xEB JUMPI DUP3 CALLDATALOAD DUP2 MSTORE PUSH1 0x2 DUP5 MSTORE DUP2 DUP2 KECCAK256 DUP3 MLOAD SWAP1 PUSH2 0xABD DUP3 PUSH2 0xC37 JUMP JUMPDEST DUP1 SLOAD DUP3 MSTORE PUSH1 0x1 DUP1 PUSH1 0xA0 SHL SUB SWAP2 PUSH1 0x1 SWAP2 DUP4 DUP4 DUP3 ADD SLOAD AND DUP9 DUP4 ADD MSTORE PUSH1 0xFF PUSH1 0x2 DUP3 ADD SLOAD DUP6 DUP2 AND DUP9 DUP6 ADD MSTORE PUSH1 0xA0 SHR AND SWAP4 PUSH1 0x60 DUP4 ADD SWAP5 PUSH1 0x2 DUP2 LT ISZERO PUSH2 0xBCD JUMPI DUP6 MSTORE DUP7 MLOAD PUSH1 0x3 DUP4 ADD DUP1 SLOAD DUP1 DUP4 MSTORE SWAP1 DUP9 MSTORE DUP11 DUP9 KECCAK256 SWAP5 SWAP6 SWAP5 DUP11 SWAP5 SWAP4 DUP13 DUP5 ADD SWAP3 SWAP1 DUP11 SWAP1 DUP15 JUMPDEST DUP4 DUP4 LT PUSH2 0xBB2 JUMPI POP POP POP POP POP DUP2 PUSH2 0xB31 SWAP2 SUB DUP3 PUSH2 0xC83 JUMP JUMPDEST PUSH1 0x80 DUP6 ADD MSTORE ADD SWAP2 DUP6 MLOAD SWAP2 DUP3 SWAP4 DUP5 SWAP2 DUP11 DUP3 SLOAD SWAP6 DUP7 DUP2 MSTORE ADD SWAP2 DUP9 MSTORE DUP11 DUP9 KECCAK256 SWAP1 DUP9 JUMPDEST DUP13 DUP8 DUP3 LT PUSH2 0xB9C JUMPI POP POP POP POP PUSH1 0xA0 SWAP4 POP SWAP1 PUSH2 0xB6C SWAP2 SUB DUP5 PUSH2 0xC83 JUMP JUMPDEST ADD MSTORE MLOAD SWAP3 PUSH1 0x2 DUP5 LT ISZERO PUSH2 0xB89 JUMPI POP POP PUSH2 0xB87 SWAP1 MLOAD DUP1 SWAP3 PUSH2 0xBFC JUMP JUMPDEST RETURN JUMPDEST PUSH4 0x4E487B71 PUSH1 0xE0 SHL DUP3 MSTORE PUSH1 0x21 SWAP1 MSTORE PUSH1 0x24 SWAP1 REVERT JUMPDEST DUP4 SLOAD DUP6 MSTORE DUP9 SWAP6 POP SWAP1 SWAP4 ADD SWAP3 SWAP2 DUP2 ADD SWAP2 DUP2 ADD PUSH2 0xB50 JUMP JUMPDEST DUP5 SLOAD DUP3 AND DUP7 MSTORE DUP15 SWAP9 POP SWAP1 SWAP5 ADD SWAP4 SWAP3 DUP9 ADD SWAP3 SWAP1 DUP9 ADD SWAP1 DUP15 PUSH2 0xB19 JUMP JUMPDEST PUSH4 0x4E487B71 PUSH1 0xE0 SHL DUP8 MSTORE PUSH1 0x21 DUP10 MSTORE PUSH1 0x24 DUP8 REVERT JUMPDEST SWAP1 POP CALLVALUE PUSH2 0x2DC JUMPI DUP2 PUSH1 0x3 NOT CALLDATASIZE ADD SLT PUSH2 0x2DC JUMPI PUSH1 0x20 SWAP1 PUSH1 0x1 SLOAD DUP2 MSTORE RETURN JUMPDEST SWAP1 PUSH1 0x2 DUP3 LT ISZERO PUSH2 0xC09 JUMPI MSTORE JUMP JUMPDEST PUSH4 0x4E487B71 PUSH1 0xE0 SHL PUSH0 MSTORE PUSH1 0x21 PUSH1 0x4 MSTORE PUSH1 0x24 PUSH0 REVERT JUMPDEST PUSH1 0x24 CALLDATALOAD SWAP1 PUSH1 0x1 PUSH1 0x1 PUSH1 0xA0 SHL SUB DUP3 AND DUP3 SUB PUSH2 0xC33 JUMPI JUMP JUMPDEST PUSH0 DUP1 REVERT JUMPDEST PUSH1 0xC0 DUP2 ADD SWAP1 DUP2 LT PUSH8 0xFFFFFFFFFFFFFFFF DUP3 GT OR PUSH2 0xC53 JUMPI PUSH1 0x40 MSTORE JUMP JUMPDEST PUSH4 0x4E487B71 PUSH1 0xE0 SHL PUSH0 MSTORE PUSH1 0x41 PUSH1 0x4 MSTORE PUSH1 0x24 PUSH0 REVERT JUMPDEST PUSH1 0x60 DUP2 ADD SWAP1 DUP2 LT PUSH8 0xFFFFFFFFFFFFFFFF DUP3 GT OR PUSH2 0xC53 JUMPI PUSH1 0x40 MSTORE JUMP JUMPDEST SWAP1 PUSH1 0x1F DUP1 NOT SWAP2 ADD AND DUP2 ADD SWAP1 DUP2 LT PUSH8 0xFFFFFFFFFFFFFFFF DUP3 GT OR PUSH2 0xC53 JUMPI PUSH1 0x40 MSTORE JUMP JUMPDEST PUSH8 0xFFFFFFFFFFFFFFFF DUP2 GT PUSH2 0xC53 JUMPI PUSH1 0x1F ADD PUSH1 0x1F NOT AND PUSH1 0x20 ADD SWAP1 JUMP JUMPDEST DUP2 PUSH1 0x1F DUP3 ADD SLT ISZERO PUSH2 0xC33 JUMPI DUP1 CALLDATALOAD SWAP1 PUSH2 0xCD8 DUP3 PUSH2 0xCA5 JUMP JUMPDEST SWAP3 PUSH2 0xCE6 PUSH1 0x40 MLOAD SWAP5 DUP6 PUSH2 0xC83 JUMP JUMPDEST DUP3 DUP5 MSTORE PUSH1 0x20 DUP4 DUP4 ADD ADD GT PUSH2 0xC33 JUMPI DUP2 PUSH0 SWAP3 PUSH1 0x20 DUP1 SWAP4 ADD DUP4 DUP7 ADD CALLDATACOPY DUP4 ADD ADD MSTORE SWAP1 JUMP JUMPDEST PUSH1 0x2 PUSH0 SLOAD EQ PUSH2 0xD16 JUMPI PUSH1 0x2 PUSH0 SSTORE JUMP JUMPDEST PUSH1 0x40 MLOAD PUSH4 0x3EE5AEB5 PUSH1 0xE0 SHL DUP2 MSTORE PUSH1 0x4 SWAP1 REVERT JUMPDEST RETURNDATASIZE ISZERO PUSH2 0xD52 JUMPI RETURNDATASIZE SWAP1 PUSH2 0xD39 DUP3 PUSH2 0xCA5 JUMP JUMPDEST SWAP2 PUSH2 0xD47 PUSH1 0x40 MLOAD SWAP4 DUP5 PUSH2 0xC83 JUMP JUMPDEST DUP3 MSTORE RETURNDATASIZE PUSH0 PUSH1 0x20 DUP5 ADD RETURNDATACOPY JUMP JUMPDEST PUSH1 0x60 SWAP1 JUMP JUMPDEST SWAP1 PUSH2 0xD7E JUMPI POP DUP1 MLOAD ISZERO PUSH2 0xD6C JUMPI DUP1 MLOAD SWAP1 PUSH1 0x20 ADD REVERT JUMPDEST PUSH1 0x40 MLOAD PUSH4 0xA12F521 PUSH1 0xE1 SHL DUP2 MSTORE PUSH1 0x4 SWAP1 REVERT JUMPDEST DUP2 MLOAD ISZERO DUP1 PUSH2 0xDB1 JUMPI JUMPDEST PUSH2 0xD8F JUMPI POP SWAP1 JUMP JUMPDEST PUSH1 0x40 MLOAD PUSH4 0x9996B315 PUSH1 0xE0 SHL DUP2 MSTORE PUSH1 0x1 PUSH1 0x1 PUSH1 0xA0 SHL SUB SWAP1 SWAP2 AND PUSH1 0x4 DUP3 ADD MSTORE PUSH1 0x24 SWAP1 REVERT JUMPDEST POP DUP1 EXTCODESIZE ISZERO PUSH2 0xD87 JUMP JUMPDEST PUSH2 0xE10 SWAP2 PUSH2 0xE07 SWAP2 PUSH1 0x40 MLOAD PUSH1 0x20 DUP2 ADD SWAP2 PUSH32 0x19457468657265756D205369676E6564204D6573736167653A0A333200000000 DUP4 MSTORE PUSH1 0x3C DUP3 ADD MSTORE PUSH1 0x3C DUP2 MSTORE PUSH2 0xDFF DUP2 PUSH2 0xC67 JUMP JUMPDEST MLOAD SWAP1 KECCAK256 PUSH2 0xE13 JUMP JUMPDEST SWAP1 SWAP3 SWAP2 SWAP3 PUSH2 0xEDB JUMP JUMPDEST SWAP1 JUMP JUMPDEST DUP2 MLOAD SWAP2 SWAP1 PUSH1 0x41 DUP4 SUB PUSH2 0xE43 JUMPI PUSH2 0xE3C SWAP3 POP PUSH1 0x20 DUP3 ADD MLOAD SWAP1 PUSH1 0x60 PUSH1 0x40 DUP5 ADD MLOAD SWAP4 ADD MLOAD PUSH0 BYTE SWAP1 PUSH2 0xE4D JUMP JUMPDEST SWAP2 SWAP3 SWAP1 SWAP2 SWAP1 JUMP JUMPDEST POP POP PUSH0 SWAP2 PUSH1 0x2 SWAP2 SWAP1 JUMP JUMPDEST SWAP2 SWAP1 PUSH32 0x7FFFFFFFFFFFFFFFFFFFFFFFFFFFFFFF5D576E7357A4501DDFE92F46681B20A0 DUP5 GT PUSH2 0xED0 JUMPI SWAP3 PUSH1 0x20 SWAP3 SWAP2 PUSH1 0xFF PUSH1 0x80 SWAP6 PUSH1 0x40 MLOAD SWAP5 DUP6 MSTORE AND DUP5 DUP5 ADD MSTORE PUSH1 0x40 DUP4 ADD MSTORE PUSH1 0x60 DUP3 ADD MSTORE PUSH0 SWAP3 DUP4 SWAP2 DUP3 DUP1 MSTORE PUSH1 0x1 GAS STATICCALL ISZERO PUSH2 0xEC4 JUMPI DUP1 MLOAD PUSH1 0x1 PUSH1 0x1 PUSH1 0xA0 SHL SUB DUP2 AND ISZERO PUSH2 0xEBB JUMPI SWAP2 DUP2 SWAP1 JUMP JUMPDEST POP DUP1 SWAP2 PUSH1 0x1 SWAP2 SWAP1 JUMP JUMPDEST PUSH1 0x40 MLOAD SWAP1 RETURNDATASIZE SWAP1 DUP3 RETURNDATACOPY RETURNDATASIZE SWAP1 REVERT JUMPDEST POP POP POP PUSH0 SWAP2 PUSH1 0x3 SWAP2 SWAP1 JUMP JUMPDEST PUSH1 0x4 DUP2 LT ISZERO PUSH2 0xC09 JUMPI DUP1 PUSH2 0xEED JUMPI POP POP JUMP JUMPDEST PUSH1 0x1 DUP2 SUB PUSH2 0xF07 JUMPI PUSH1 0x40 MLOAD PUSH4 0xF645EEDF PUSH1 0xE0 SHL DUP2 MSTORE PUSH1 0x4 SWAP1 REVERT JUMPDEST PUSH1 0x2 DUP2 SUB PUSH2 0xF28 JUMPI PUSH1 0x40 MLOAD PUSH4 0xFCE698F7 PUSH1 0xE0 SHL DUP2 MSTORE PUSH1 0x4 DUP2 ADD DUP4 SWAP1 MSTORE PUSH1 0x24 SWAP1 REVERT JUMPDEST PUSH1 0x3 EQ PUSH2 0xF32 JUMPI POP JUMP JUMPDEST PUSH1 0x24 SWAP1 PUSH1 0x40 MLOAD SWAP1 PUSH4 0x35E2F383 PUSH1 0xE2 SHL DUP3 MSTORE PUSH1 0x4 DUP3 ADD MSTORE REVERT INVALID LOG2 PUSH5 0x6970667358 0x22 SLT KECCAK256 0xC9 LOG3 PUSH3 0xA1EC1F 0xBB 0xD6 NUMBER 0xE5 NOT PUSH20 0x9AA0AE15DAA180FA000AC311990DC15B97F7E3F9 PUSH5 0x736F6C6343 STOP ADDMOD EQ STOP CALLER "},"methodIdentifiers":{"getMessages(uint256,address)":"fd76554a","getOrderDetails(uint256)":"ec7dd7bb","getOrderStatus(uint256)":"45fa8aae","isBuyerRegistered(uint256,address)":"55caccce","listOrderAsSeller(uint256,address)":"b1b4c558","recoverSignedAddress(bytes32,bytes)":"ae4af9ea","registerAsBuyer(uint256,uint256)":"9e368a29","releaseFunds(uint256,bytes,address)":"81a41611","totalOrders()":"1d834409"}}}}}