{"contracts/OffchainTrade.sol":{"OffchainTrade":{"abi":[{"inputs":[{"internalType":"address","name":"target","type":"address"}],"name":"AddressEmptyCode","type":"error"},{"inputs":[{"internalType":"address","name":"account","type":"address"}],"name":"AddressInsufficientBalance","type":"error"},{"inputs":[],"name":"AllowanceCheckFailed","type":"error"},{"inputs":[],"name":"AlreadyRegistered","type":"error"},{"inputs":[],"name":"AlreadyReleased","type":"error"},{"inputs":[],"name":"BuyerNotRegistered","type":"error"},{"inputs":[],"name":"ECDSAInvalidSignature","type":"error"},{"inputs":[{"internalType":"uint256","name":"length","type":"uint256"}],"name":"ECDSAInvalidSignatureLength","type":"error"},{"inputs":[{"internalType":"bytes32","name":"s","type":"bytes32"}],"name":"ECDSAInvalidSignatureS","type":"error"},{"inputs":[],"name":"FailedInnerCall","type":"error"},{"inputs":[],"name":"InsufficientFunds","type":"error"},{"inputs":[],"name":"InvalidAmount","type":"error"},{"inputs":[],"name":"NotSeller","type":"error"},{"inputs":[],"name":"OrderIdNotExist","type":"error"},{"inputs":[],"name":"ReentrancyGuardReentrantCall","type":"error"},{"inputs":[{"internalType":"address","name":"token","type":"address"}],"name":"SafeERC20FailedOperation","type":"error"},{"inputs":[],"name":"SellersCantRegister","type":"error"},{"inputs":[],"name":"TransactionFailed","type":"error"},{"inputs":[],"name":"WrongSellerAddress","type":"error"},{"anonymous":false,"inputs":[{"indexed":true,"internalType":"address","name":"buyer","type":"address"},{"indexed":false,"internalType":"uint256","name":"orderId","type":"uint256"}],"name":"FundsReleased","type":"event"},{"anonymous":false,"inputs":[{"indexed":true,"internalType":"address","name":"seller","type":"address"},{"indexed":true,"internalType":"uint256","name":"amount","type":"uint256"},{"indexed":true,"internalType":"address","name":"token","type":"address"},{"indexed":false,"internalType":"enum OrderStatus","name":"state","type":"uint8"}],"name":"OrderListed","type":"event"},{"anonymous":false,"inputs":[{"indexed":true,"internalType":"address","name":"buyer","type":"address"},{"indexed":true,"internalType":"uint256","name":"orderId","type":"uint256"}],"name":"RegisterAsBuyer","type":"event"},{"inputs":[{"internalType":"uint256","name":"_orderId","type":"uint256"},{"internalType":"address","name":"_buyer","type":"address"}],"name":"getMessages","outputs":[{"internalType":"uint256","name":"_message","type":"uint256"}],"stateMutability":"view","type":"function"},{"inputs":[{"internalType":"uint256","name":"_orderId","type":"uint256"}],"name":"getOrderDetails","outputs":[{"components":[{"internalType":"uint256","name":"amount","type":"uint256"},{"internalType":"address","name":"seller","type":"address"},{"internalType":"address","name":"token","type":"address"},{"internalType":"enum OrderStatus","name":"state","type":"uint8"},{"internalType":"address[]","name":"buyers","type":"address[]"},{"internalType":"uint256[]","name":"messages","type":"uint256[]"}],"internalType":"struct OffchainTrade.Order","name":"order","type":"tuple"}],"stateMutability":"view","type":"function"},{"inputs":[{"internalType":"uint256","name":"","type":"uint256"},{"internalType":"address","name":"","type":"address"}],"name":"isBuyerRegistered","outputs":[{"internalType":"bool","name":"","type":"bool"}],"stateMutability":"view","type":"function"},{"inputs":[{"internalType":"uint256","name":"_amount","type":"uint256"},{"internalType":"address","name":"_token","type":"address"}],"name":"listOrderAsSeller","outputs":[],"stateMutability":"payable","type":"function"},{"inputs":[{"internalType":"bytes32","name":"_hash","type":"bytes32"},{"internalType":"bytes","name":"_sign","type":"bytes"}],"name":"recoverSignedAddress","outputs":[{"internalType":"address","name":"recoveredAddress","type":"address"}],"stateMutability":"pure","type":"function"},{"inputs":[{"internalType":"uint256","name":"_orderId","type":"uint256"},{"internalType":"uint256","name":"_message","type":"uint256"}],"name":"registerAsBuyer","outputs":[],"stateMutability":"nonpayable","type":"function"},{"inputs":[{"internalType":"uint256","name":"_orderId","type":"uint256"},{"internalType":"bytes","name":"_sign","type":"bytes"},{"internalType":"address","name":"_buyer","type":"address"}],"name":"releaseFunds","outputs":[],"stateMutability":"nonpayable","type":"function"},{"inputs":[],"name":"totalOrders","outputs":[{"internalType":"uint256","name":"","type":"uint256"}],"stateMutability":"view","type":"function"}],"evm":{"bytecode":{"linkReferences":{},"object":"6080806040523461001a5760015f55610e4c908161001f8239f35b5f80fdfe6080604081815260049182361015610015575f80fd5b5f90813560e01c9081631d83440914610ab95750806355caccce14610a7257806381a416111461078b5780639e368a291461056e578063ae4af9ea1461051e578063b1b4c55814610305578063ec7dd7bb146100e35763fd76554a14610079575f80fd5b346100e057816003193601126100e0578235610093610ad5565b81835260026020528383206001015490916001600160a01b0391821633036100d05783526020948552838320911682528352819020549051908152f35b8451635ec8235160e01b81528690fd5b80fd5b50346100e057602090816003193601126100e057606060a0845161010681610aef565b838152838582015283868201528383820152826080820152015283358152600282528281209383519061013882610aef565b8554825260018060a01b03916001968388820154169286830193845260028201549760ff818501998781168b5260a01c1690606085019160028110156102f2578794849184528a8d8b6003840191865190819a858c968654948581520195855280852094915b8483106102cd57505050505050906101b7910387610b3b565b6080870195865201958151968c888c83549182815201928c528c8c20918c5b8281106102ba575050505091888b9c926101f68a839d9e9c96038b610b3b565b60a08901998a5282519d8e528d8b60e082019a519101525116908c0152511660608a0152519060028210156102a7575060808801525160c060a0880152805191829052929694936101008701938801919085905b82821061029057505050505194601f198583030160c08601528080875193848152019601925b82811061027d5785870386f35b8351875295810195928101928401610270565b83518116865294890194928901929087019061024a565b634e487b7160e01b885260219052602487fd5b83548552938e01939281019281016101d6565b858497929396999a508495985054168152019501910192889594928f948b958f61019e565b634e487b7160e01b895260218452602489fd5b5091908060031936011261051a5781359061031e610ad5565b90610327610bbf565b821561050b576001545f1981146104f857600190810180825586526002602090815282872091820180546001600160a01b031916331790556001600160a01b0390931694856103d957670de0b6b3a7640000340485036103cb575090600282857fe11397742931cf8ec8fb96d1509ea9d345485ebbf4b4097cdb268fb4f8ec804b94555b0180546001600160a81b0319168617905551858152339290a46001815580f35b825163356680b760e01b8152fd5b82516370a0823160e01b8152338282015284816024818a5afa9081156104bd5790869189916104c7575b5010801561044f575b61043e575090600282857fe11397742931cf8ec8fb96d1509ea9d345485ebbf4b4097cdb268fb4f8ec804b94556103ab565b82516001622e27f760e11b03198152fd5b508251636eb1769f60e11b8152338282015230602482015284816044818a5afa9081156104bd579086918991610488575b50141561040c565b809250868092503d83116104b6575b6104a18183610b3b565b810103126104b2578590515f610480565b8780fd5b503d610497565b84513d8a823e3d90fd5b809250868092503d83116104f1575b6104e08183610b3b565b810103126104b2578590515f610403565b503d6104d6565b634e487b7160e01b865260118552602486fd5b5163162908e360e11b81528390fd5b8280fd5b50346100e057816003193601126100e0576024359067ffffffffffffffff82116100e0575060209261055661055d9236908301610b79565b9035610c72565b90516001600160a01b039091168152f35b5091903461051a578060031936011261051a5781359061058c610bbf565b6001928284541061077d578285526020906002825282862083516105af81610aef565b8154815260018060a01b03908188840154169085810191825260ff60028501548481168984015260a01c16936060820194600281101561076a578b929187918752600381018a51908d828c835491828152019288528c8089209289915b83831061074057505050505081610624910382610b3b565b608084015201885190819384928a835491828152019282528d8b832092905b8c83831061072a57505050505060a0929161065f910384610b3b565b01525116331461071b5784875260038352838720338852835260ff848820541661070c575160028110156106f9576106eb578386526003825282862033875282528286208560ff198254161790558386528152818520903386525260243590842055337f7e1b42d795bbf83a2002a8154af05e39477fc48963aa388d575a1a7cdd6d34af8480a3815580f35b82516331da482760e11b8152fd5b634e487b7160e01b875260218252602487fd5b508251630ea075bf60e21b8152fd5b508251633482e86160e21b8152fd5b845486528896509094019392830192018e610643565b919490939698995083929597508b87541681520194019101908f96959391928f938c96948e61060c565b634e487b7160e01b8c526021875260248cfd5b9051637897c72360e01b8152fd5b509034610a6e576060366003190112610a6e5760249267ffffffffffffffff918135908535848111610a6a576107c49036908501610b79565b6001600160a01b036044358181169690959291878703610a66576107e6610bbf565b85895260209660028852858a2093600285019182549160ff8360a01c166002811015610a5457610a44578460018801541691823303610a34578a8e5260038c52898e208d8f528c52898e205460ff1615610a245760ff60a01b198416600160a01b1785558a8e52888c52898e208d8f528c52898e20548a5160609290921b6bffffffffffffffffffffffff1916828e01908152603480840192909252908252869261089f9290919061089781610b1f565b519020610c72565b1603610a1457821615610991579089929154169254908551908882019263a9059cbb60e01b84528a8d84015260448301526044825260808201908282109082111761097f57865251610902929182919082865af16108fb610be0565b9083610c0f565b805186811515918261095e575b5050905061094b5750507f221c08a06b07a64803b3787861a3f276212fcccb51c2e6234077a9b8cb13047a939495505b51908152a26001815580f35b87925191635274afe760e01b8352820152fd5b83809293500103126104b2578501518015908115036104b25780865f61090f565b634e487b7160e01b8452604186528b84fd5b5050509690965490670de0b6b3a764000091828102928184041490151715610a0357508580808093885af16109c4610be0565b50156109f4577f221c08a06b07a64803b3787861a3f276212fcccb51c2e6234077a9b8cb13047a9394955061093f565b516317f2c34560e31b81528590fd5b634e487b7160e01b87526011885286fd5b86516308a24ab560e31b81528690fd5b8951633f165a6160e21b81528990fd5b8951635ec8235160e01b81528990fd5b88516331da482760e11b81528890fd5b634e487b7160e01b8e52602189528e8efd5b8880fd5b8580fd5b5080fd5b50913461051a578160031936011261051a578160209360ff92610a93610ad5565b90358252600386528282206001600160a01b039091168252855220549151911615158152f35b905034610a6e5781600319360112610a6e576020906001548152f35b602435906001600160a01b0382168203610aeb57565b5f80fd5b60c0810190811067ffffffffffffffff821117610b0b57604052565b634e487b7160e01b5f52604160045260245ffd5b6060810190811067ffffffffffffffff821117610b0b57604052565b90601f8019910116810190811067ffffffffffffffff821117610b0b57604052565b67ffffffffffffffff8111610b0b57601f01601f191660200190565b81601f82011215610aeb57803590610b9082610b5d565b92610b9e6040519485610b3b565b82845260208383010111610aeb57815f926020809301838601378301015290565b60025f5414610bce5760025f55565b604051633ee5aeb560e01b8152600490fd5b3d15610c0a573d90610bf182610b5d565b91610bff6040519384610b3b565b82523d5f602084013e565b606090565b90610c365750805115610c2457805190602001fd5b604051630a12f52160e11b8152600490fd5b81511580610c69575b610c47575090565b604051639996b31560e01b81526001600160a01b039091166004820152602490fd5b50803b15610c3f565b610cc891610cbf9160405160208101917f19457468657265756d205369676e6564204d6573736167653a0a3332000000008352603c820152603c8152610cb781610b1f565b519020610ccb565b90929192610d93565b90565b8151919060418303610cfb57610cf49250602082015190606060408401519301515f1a90610d05565b9192909190565b50505f9160029190565b91907f7fffffffffffffffffffffffffffffff5d576e7357a4501ddfe92f46681b20a08411610d8857926020929160ff6080956040519485521684840152604083015260608201525f92839182805260015afa15610d7c5780516001600160a01b03811615610d7357918190565b50809160019190565b604051903d90823e3d90fd5b5050505f9160039190565b6004811015610e025780610da5575050565b60018103610dbf5760405163f645eedf60e01b8152600490fd5b60028103610de05760405163fce698f760e01b815260048101839052602490fd5b600314610dea5750565b602490604051906335e2f38360e21b82526004820152fd5b634e487b7160e01b5f52602160045260245ffdfea2646970667358221220109cd0e56518a7bd80bdb04e5d5006a5c2e4dda946c9aa69ccf2cfc6891b3dd164736f6c63430008140033","opcodes":"PUSH1 0x80 DUP1 PUSH1 0x40 MSTORE CALLVALUE PUSH2 0x1A JUMPI PUSH1 0x1 PUSH0 SSTORE PUSH2 0xE4C SWAP1 DUP2 PUSH2 0x1F DUP3 CODECOPY RETURN JUMPDEST PUSH0 DUP1 REVERT INVALID PUSH1 0x80 PUSH1 0x40 DUP2 DUP2 MSTORE PUSH1 0x4 SWAP2 DUP3 CALLDATASIZE LT ISZERO PUSH2 0x15 JUMPI PUSH0 DUP1 REVERT JUMPDEST PUSH0 SWAP1 DUP2 CALLDATALOAD PUSH1 0xE0 SHR SWAP1 DUP2 PUSH4 0x1D834409 EQ PUSH2 0xAB9 JUMPI POP DUP1 PUSH4 0x55CACCCE EQ PUSH2 0xA72 JUMPI DUP1 PUSH4 0x81A41611 EQ PUSH2 0x78B JUMPI DUP1 PUSH4 0x9E368A29 EQ PUSH2 0x56E JUMPI DUP1 PUSH4 0xAE4AF9EA EQ PUSH2 0x51E JUMPI DUP1 PUSH4 0xB1B4C558 EQ PUSH2 0x305 JUMPI DUP1 PUSH4 0xEC7DD7BB EQ PUSH2 0xE3 JUMPI PUSH4 0xFD76554A EQ PUSH2 0x79 JUMPI PUSH0 DUP1 REVERT JUMPDEST CALLVALUE PUSH2 0xE0 JUMPI DUP2 PUSH1 0x3 NOT CALLDATASIZE ADD SLT PUSH2 0xE0 JUMPI DUP3 CALLDATALOAD PUSH2 0x93 PUSH2 0xAD5 JUMP JUMPDEST DUP2 DUP4 MSTORE PUSH1 0x2 PUSH1 0x20 MSTORE DUP4 DUP4 KECCAK256 PUSH1 0x1 ADD SLOAD SWAP1 SWAP2 PUSH1 0x1 PUSH1 0x1 PUSH1 0xA0 SHL SUB SWAP2 DUP3 AND CALLER SUB PUSH2 0xD0 JUMPI DUP4 MSTORE PUSH1 0x20 SWAP5 DUP6 MSTORE DUP4 DUP4 KECCAK256 SWAP2 AND DUP3 MSTORE DUP4 MSTORE DUP2 SWAP1 KECCAK256 SLOAD SWAP1 MLOAD SWAP1 DUP2 MSTORE RETURN JUMPDEST DUP5 MLOAD PUSH4 0x5EC82351 PUSH1 0xE0 SHL DUP2 MSTORE DUP7 SWAP1 REVERT JUMPDEST DUP1 REVERT JUMPDEST POP CALLVALUE PUSH2 0xE0 JUMPI PUSH1 0x20 SWAP1 DUP2 PUSH1 0x3 NOT CALLDATASIZE ADD SLT PUSH2 0xE0 JUMPI PUSH1 0x60 PUSH1 0xA0 DUP5 MLOAD PUSH2 0x106 DUP2 PUSH2 0xAEF JUMP JUMPDEST DUP4 DUP2 MSTORE DUP4 DUP6 DUP3 ADD MSTORE DUP4 DUP7 DUP3 ADD MSTORE DUP4 DUP4 DUP3 ADD MSTORE DUP3 PUSH1 0x80 DUP3 ADD MSTORE ADD MSTORE DUP4 CALLDATALOAD DUP2 MSTORE PUSH1 0x2 DUP3 MSTORE DUP3 DUP2 KECCAK256 SWAP4 DUP4 MLOAD SWAP1 PUSH2 0x138 DUP3 PUSH2 0xAEF JUMP JUMPDEST DUP6 SLOAD DUP3 MSTORE PUSH1 0x1 DUP1 PUSH1 0xA0 SHL SUB SWAP2 PUSH1 0x1 SWAP7 DUP4 DUP9 DUP3 ADD SLOAD AND SWAP3 DUP7 DUP4 ADD SWAP4 DUP5 MSTORE PUSH1 0x2 DUP3 ADD SLOAD SWAP8 PUSH1 0xFF DUP2 DUP6 ADD SWAP10 DUP8 DUP2 AND DUP12 MSTORE PUSH1 0xA0 SHR AND SWAP1 PUSH1 0x60 DUP6 ADD SWAP2 PUSH1 0x2 DUP2 LT ISZERO PUSH2 0x2F2 JUMPI DUP8 SWAP5 DUP5 SWAP2 DUP5 MSTORE DUP11 DUP14 DUP12 PUSH1 0x3 DUP5 ADD SWAP2 DUP7 MLOAD SWAP1 DUP2 SWAP11 DUP6 DUP13 SWAP7 DUP7 SLOAD SWAP5 DUP6 DUP2 MSTORE ADD SWAP6 DUP6 MSTORE DUP1 DUP6 KECCAK256 SWAP5 SWAP2 JUMPDEST DUP5 DUP4 LT PUSH2 0x2CD JUMPI POP POP POP POP POP POP SWAP1 PUSH2 0x1B7 SWAP2 SUB DUP8 PUSH2 0xB3B JUMP JUMPDEST PUSH1 0x80 DUP8 ADD SWAP6 DUP7 MSTORE ADD SWAP6 DUP2 MLOAD SWAP7 DUP13 DUP9 DUP13 DUP4 SLOAD SWAP2 DUP3 DUP2 MSTORE ADD SWAP3 DUP13 MSTORE DUP13 DUP13 KECCAK256 SWAP2 DUP13 JUMPDEST DUP3 DUP2 LT PUSH2 0x2BA JUMPI POP POP POP POP SWAP2 DUP9 DUP12 SWAP13 SWAP3 PUSH2 0x1F6 DUP11 DUP4 SWAP14 SWAP15 SWAP13 SWAP7 SUB DUP12 PUSH2 0xB3B JUMP JUMPDEST PUSH1 0xA0 DUP10 ADD SWAP10 DUP11 MSTORE DUP3 MLOAD SWAP14 DUP15 MSTORE DUP14 DUP12 PUSH1 0xE0 DUP3 ADD SWAP11 MLOAD SWAP2 ADD MSTORE MLOAD AND SWAP1 DUP13 ADD MSTORE MLOAD AND PUSH1 0x60 DUP11 ADD MSTORE MLOAD SWAP1 PUSH1 0x2 DUP3 LT ISZERO PUSH2 0x2A7 JUMPI POP PUSH1 0x80 DUP9 ADD MSTORE MLOAD PUSH1 0xC0 PUSH1 0xA0 DUP9 ADD MSTORE DUP1 MLOAD SWAP2 DUP3 SWAP1 MSTORE SWAP3 SWAP7 SWAP5 SWAP4 PUSH2 0x100 DUP8 ADD SWAP4 DUP9 ADD SWAP2 SWAP1 DUP6 SWAP1 JUMPDEST DUP3 DUP3 LT PUSH2 0x290 JUMPI POP POP POP POP MLOAD SWAP5 PUSH1 0x1F NOT DUP6 DUP4 SUB ADD PUSH1 0xC0 DUP7 ADD MSTORE DUP1 DUP1 DUP8 MLOAD SWAP4 DUP5 DUP2 MSTORE ADD SWAP7 ADD SWAP3 JUMPDEST DUP3 DUP2 LT PUSH2 0x27D JUMPI DUP6 DUP8 SUB DUP7 RETURN JUMPDEST DUP4 MLOAD DUP8 MSTORE SWAP6 DUP2 ADD SWAP6 SWAP3 DUP2 ADD SWAP3 DUP5 ADD PUSH2 0x270 JUMP JUMPDEST DUP4 MLOAD DUP2 AND DUP7 MSTORE SWAP5 DUP10 ADD SWAP5 SWAP3 DUP10 ADD SWAP3 SWAP1 DUP8 ADD SWAP1 PUSH2 0x24A JUMP JUMPDEST PUSH4 0x4E487B71 PUSH1 0xE0 SHL DUP9 MSTORE PUSH1 0x21 SWAP1 MSTORE PUSH1 0x24 DUP8 REVERT JUMPDEST DUP4 SLOAD DUP6 MSTORE SWAP4 DUP15 ADD SWAP4 SWAP3 DUP2 ADD SWAP3 DUP2 ADD PUSH2 0x1D6 JUMP JUMPDEST DUP6 DUP5 SWAP8 SWAP3 SWAP4 SWAP7 SWAP10 SWAP11 POP DUP5 SWAP6 SWAP9 POP SLOAD AND DUP2 MSTORE ADD SWAP6 ADD SWAP2 ADD SWAP3 DUP9 SWAP6 SWAP5 SWAP3 DUP16 SWAP5 DUP12 SWAP6 DUP16 PUSH2 0x19E JUMP JUMPDEST PUSH4 0x4E487B71 PUSH1 0xE0 SHL DUP10 MSTORE PUSH1 0x21 DUP5 MSTORE PUSH1 0x24 DUP10 REVERT JUMPDEST POP SWAP2 SWAP1 DUP1 PUSH1 0x3 NOT CALLDATASIZE ADD SLT PUSH2 0x51A JUMPI DUP2 CALLDATALOAD SWAP1 PUSH2 0x31E PUSH2 0xAD5 JUMP JUMPDEST SWAP1 PUSH2 0x327 PUSH2 0xBBF JUMP JUMPDEST DUP3 ISZERO PUSH2 0x50B JUMPI PUSH1 0x1 SLOAD PUSH0 NOT DUP2 EQ PUSH2 0x4F8 JUMPI PUSH1 0x1 SWAP1 DUP2 ADD DUP1 DUP3 SSTORE DUP7 MSTORE PUSH1 0x2 PUSH1 0x20 SWAP1 DUP2 MSTORE DUP3 DUP8 KECCAK256 SWAP2 DUP3 ADD DUP1 SLOAD PUSH1 0x1 PUSH1 0x1 PUSH1 0xA0 SHL SUB NOT AND CALLER OR SWAP1 SSTORE PUSH1 0x1 PUSH1 0x1 PUSH1 0xA0 SHL SUB SWAP1 SWAP4 AND SWAP5 DUP6 PUSH2 0x3D9 JUMPI PUSH8 0xDE0B6B3A7640000 CALLVALUE DIV DUP6 SUB PUSH2 0x3CB JUMPI POP SWAP1 PUSH1 0x2 DUP3 DUP6 PUSH32 0xE11397742931CF8EC8FB96D1509EA9D345485EBBF4B4097CDB268FB4F8EC804B SWAP5 SSTORE JUMPDEST ADD DUP1 SLOAD PUSH1 0x1 PUSH1 0x1 PUSH1 0xA8 SHL SUB NOT AND DUP7 OR SWAP1 SSTORE MLOAD DUP6 DUP2 MSTORE CALLER SWAP3 SWAP1 LOG4 PUSH1 0x1 DUP2 SSTORE DUP1 RETURN JUMPDEST DUP3 MLOAD PUSH4 0x356680B7 PUSH1 0xE0 SHL DUP2 MSTORE REVERT JUMPDEST DUP3 MLOAD PUSH4 0x70A08231 PUSH1 0xE0 SHL DUP2 MSTORE CALLER DUP3 DUP3 ADD MSTORE DUP5 DUP2 PUSH1 0x24 DUP2 DUP11 GAS STATICCALL SWAP1 DUP2 ISZERO PUSH2 0x4BD JUMPI SWAP1 DUP7 SWAP2 DUP10 SWAP2 PUSH2 0x4C7 JUMPI JUMPDEST POP LT DUP1 ISZERO PUSH2 0x44F JUMPI JUMPDEST PUSH2 0x43E JUMPI POP SWAP1 PUSH1 0x2 DUP3 DUP6 PUSH32 0xE11397742931CF8EC8FB96D1509EA9D345485EBBF4B4097CDB268FB4F8EC804B SWAP5 SSTORE PUSH2 0x3AB JUMP JUMPDEST DUP3 MLOAD PUSH1 0x1 PUSH3 0x2E27F7 PUSH1 0xE1 SHL SUB NOT DUP2 MSTORE REVERT JUMPDEST POP DUP3 MLOAD PUSH4 0x6EB1769F PUSH1 0xE1 SHL DUP2 MSTORE CALLER DUP3 DUP3 ADD MSTORE ADDRESS PUSH1 0x24 DUP3 ADD MSTORE DUP5 DUP2 PUSH1 0x44 DUP2 DUP11 GAS STATICCALL SWAP1 DUP2 ISZERO PUSH2 0x4BD JUMPI SWAP1 DUP7 SWAP2 DUP10 SWAP2 PUSH2 0x488 JUMPI JUMPDEST POP EQ ISZERO PUSH2 0x40C JUMP JUMPDEST DUP1 SWAP3 POP DUP7 DUP1 SWAP3 POP RETURNDATASIZE DUP4 GT PUSH2 0x4B6 JUMPI JUMPDEST PUSH2 0x4A1 DUP2 DUP4 PUSH2 0xB3B JUMP JUMPDEST DUP2 ADD SUB SLT PUSH2 0x4B2 JUMPI DUP6 SWAP1 MLOAD PUSH0 PUSH2 0x480 JUMP JUMPDEST DUP8 DUP1 REVERT JUMPDEST POP RETURNDATASIZE PUSH2 0x497 JUMP JUMPDEST DUP5 MLOAD RETURNDATASIZE DUP11 DUP3 RETURNDATACOPY RETURNDATASIZE SWAP1 REVERT JUMPDEST DUP1 SWAP3 POP DUP7 DUP1 SWAP3 POP RETURNDATASIZE DUP4 GT PUSH2 0x4F1 JUMPI JUMPDEST PUSH2 0x4E0 DUP2 DUP4 PUSH2 0xB3B JUMP JUMPDEST DUP2 ADD SUB SLT PUSH2 0x4B2 JUMPI DUP6 SWAP1 MLOAD PUSH0 PUSH2 0x403 JUMP JUMPDEST POP RETURNDATASIZE PUSH2 0x4D6 JUMP JUMPDEST PUSH4 0x4E487B71 PUSH1 0xE0 SHL DUP7 MSTORE PUSH1 0x11 DUP6 MSTORE PUSH1 0x24 DUP7 REVERT JUMPDEST MLOAD PUSH4 0x162908E3 PUSH1 0xE1 SHL DUP2 MSTORE DUP4 SWAP1 REVERT JUMPDEST DUP3 DUP1 REVERT JUMPDEST POP CALLVALUE PUSH2 0xE0 JUMPI DUP2 PUSH1 0x3 NOT CALLDATASIZE ADD SLT PUSH2 0xE0 JUMPI PUSH1 0x24 CALLDATALOAD SWAP1 PUSH8 0xFFFFFFFFFFFFFFFF DUP3 GT PUSH2 0xE0 JUMPI POP PUSH1 0x20 SWAP3 PUSH2 0x556 PUSH2 0x55D SWAP3 CALLDATASIZE SWAP1 DUP4 ADD PUSH2 0xB79 JUMP JUMPDEST SWAP1 CALLDATALOAD PUSH2 0xC72 JUMP JUMPDEST SWAP1 MLOAD PUSH1 0x1 PUSH1 0x1 PUSH1 0xA0 SHL SUB SWAP1 SWAP2 AND DUP2 MSTORE RETURN JUMPDEST POP SWAP2 SWAP1 CALLVALUE PUSH2 0x51A JUMPI DUP1 PUSH1 0x3 NOT CALLDATASIZE ADD SLT PUSH2 0x51A JUMPI DUP2 CALLDATALOAD SWAP1 PUSH2 0x58C PUSH2 0xBBF JUMP JUMPDEST PUSH1 0x1 SWAP3 DUP3 DUP5 SLOAD LT PUSH2 0x77D JUMPI DUP3 DUP6 MSTORE PUSH1 0x20 SWAP1 PUSH1 0x2 DUP3 MSTORE DUP3 DUP7 KECCAK256 DUP4 MLOAD PUSH2 0x5AF DUP2 PUSH2 0xAEF JUMP JUMPDEST DUP2 SLOAD DUP2 MSTORE PUSH1 0x1 DUP1 PUSH1 0xA0 SHL SUB SWAP1 DUP2 DUP9 DUP5 ADD SLOAD AND SWAP1 DUP6 DUP2 ADD SWAP2 DUP3 MSTORE PUSH1 0xFF PUSH1 0x2 DUP6 ADD SLOAD DUP5 DUP2 AND DUP10 DUP5 ADD MSTORE PUSH1 0xA0 SHR AND SWAP4 PUSH1 0x60 DUP3 ADD SWAP5 PUSH1 0x2 DUP2 LT ISZERO PUSH2 0x76A JUMPI DUP12 SWAP3 SWAP2 DUP8 SWAP2 DUP8 MSTORE PUSH1 0x3 DUP2 ADD DUP11 MLOAD SWAP1 DUP14 DUP3 DUP13 DUP4 SLOAD SWAP2 DUP3 DUP2 MSTORE ADD SWAP3 DUP9 MSTORE DUP13 DUP1 DUP10 KECCAK256 SWAP3 DUP10 SWAP2 JUMPDEST DUP4 DUP4 LT PUSH2 0x740 JUMPI POP POP POP POP POP DUP2 PUSH2 0x624 SWAP2 SUB DUP3 PUSH2 0xB3B JUMP JUMPDEST PUSH1 0x80 DUP5 ADD MSTORE ADD DUP9 MLOAD SWAP1 DUP2 SWAP4 DUP5 SWAP3 DUP11 DUP4 SLOAD SWAP2 DUP3 DUP2 MSTORE ADD SWAP3 DUP3 MSTORE DUP14 DUP12 DUP4 KECCAK256 SWAP3 SWAP1 JUMPDEST DUP13 DUP4 DUP4 LT PUSH2 0x72A JUMPI POP POP POP POP POP PUSH1 0xA0 SWAP3 SWAP2 PUSH2 0x65F SWAP2 SUB DUP5 PUSH2 0xB3B JUMP JUMPDEST ADD MSTORE MLOAD AND CALLER EQ PUSH2 0x71B JUMPI DUP5 DUP8 MSTORE PUSH1 0x3 DUP4 MSTORE DUP4 DUP8 KECCAK256 CALLER DUP9 MSTORE DUP4 MSTORE PUSH1 0xFF DUP5 DUP9 KECCAK256 SLOAD AND PUSH2 0x70C JUMPI MLOAD PUSH1 0x2 DUP2 LT ISZERO PUSH2 0x6F9 JUMPI PUSH2 0x6EB JUMPI DUP4 DUP7 MSTORE PUSH1 0x3 DUP3 MSTORE DUP3 DUP7 KECCAK256 CALLER DUP8 MSTORE DUP3 MSTORE DUP3 DUP7 KECCAK256 DUP6 PUSH1 0xFF NOT DUP3 SLOAD AND OR SWAP1 SSTORE DUP4 DUP7 MSTORE DUP2 MSTORE DUP2 DUP6 KECCAK256 SWAP1 CALLER DUP7 MSTORE MSTORE PUSH1 0x24 CALLDATALOAD SWAP1 DUP5 KECCAK256 SSTORE CALLER PUSH32 0x7E1B42D795BBF83A2002A8154AF05E39477FC48963AA388D575A1A7CDD6D34AF DUP5 DUP1 LOG3 DUP2 SSTORE DUP1 RETURN JUMPDEST DUP3 MLOAD PUSH4 0x31DA4827 PUSH1 0xE1 SHL DUP2 MSTORE REVERT JUMPDEST PUSH4 0x4E487B71 PUSH1 0xE0 SHL DUP8 MSTORE PUSH1 0x21 DUP3 MSTORE PUSH1 0x24 DUP8 REVERT JUMPDEST POP DUP3 MLOAD PUSH4 0xEA075BF PUSH1 0xE2 SHL DUP2 MSTORE REVERT JUMPDEST POP DUP3 MLOAD PUSH4 0x3482E861 PUSH1 0xE2 SHL DUP2 MSTORE REVERT JUMPDEST DUP5 SLOAD DUP7 MSTORE DUP9 SWAP7 POP SWAP1 SWAP5 ADD SWAP4 SWAP3 DUP4 ADD SWAP3 ADD DUP15 PUSH2 0x643 JUMP JUMPDEST SWAP2 SWAP5 SWAP1 SWAP4 SWAP7 SWAP9 SWAP10 POP DUP4 SWAP3 SWAP6 SWAP8 POP DUP12 DUP8 SLOAD AND DUP2 MSTORE ADD SWAP5 ADD SWAP2 ADD SWAP1 DUP16 SWAP7 SWAP6 SWAP4 SWAP2 SWAP3 DUP16 SWAP4 DUP13 SWAP7 SWAP5 DUP15 PUSH2 0x60C JUMP JUMPDEST PUSH4 0x4E487B71 PUSH1 0xE0 SHL DUP13 MSTORE PUSH1 0x21 DUP8 MSTORE PUSH1 0x24 DUP13 REVERT JUMPDEST SWAP1 MLOAD PUSH4 0x7897C723 PUSH1 0xE0 SHL DUP2 MSTORE REVERT JUMPDEST POP SWAP1 CALLVALUE PUSH2 0xA6E JUMPI PUSH1 0x60 CALLDATASIZE PUSH1 0x3 NOT ADD SLT PUSH2 0xA6E JUMPI PUSH1 0x24 SWAP3 PUSH8 0xFFFFFFFFFFFFFFFF SWAP2 DUP2 CALLDATALOAD SWAP1 DUP6 CALLDATALOAD DUP5 DUP2 GT PUSH2 0xA6A JUMPI PUSH2 0x7C4 SWAP1 CALLDATASIZE SWAP1 DUP6 ADD PUSH2 0xB79 JUMP JUMPDEST PUSH1 0x1 PUSH1 0x1 PUSH1 0xA0 SHL SUB PUSH1 0x44 CALLDATALOAD DUP2 DUP2 AND SWAP7 SWAP1 SWAP6 SWAP3 SWAP2 DUP8 DUP8 SUB PUSH2 0xA66 JUMPI PUSH2 0x7E6 PUSH2 0xBBF JUMP JUMPDEST DUP6 DUP10 MSTORE PUSH1 0x20 SWAP7 PUSH1 0x2 DUP9 MSTORE DUP6 DUP11 KECCAK256 SWAP4 PUSH1 0x2 DUP6 ADD SWAP2 DUP3 SLOAD SWAP2 PUSH1 0xFF DUP4 PUSH1 0xA0 SHR AND PUSH1 0x2 DUP2 LT ISZERO PUSH2 0xA54 JUMPI PUSH2 0xA44 JUMPI DUP5 PUSH1 0x1 DUP9 ADD SLOAD AND SWAP2 DUP3 CALLER SUB PUSH2 0xA34 JUMPI DUP11 DUP15 MSTORE PUSH1 0x3 DUP13 MSTORE DUP10 DUP15 KECCAK256 DUP14 DUP16 MSTORE DUP13 MSTORE DUP10 DUP15 KECCAK256 SLOAD PUSH1 0xFF AND ISZERO PUSH2 0xA24 JUMPI PUSH1 0xFF PUSH1 0xA0 SHL NOT DUP5 AND PUSH1 0x1 PUSH1 0xA0 SHL OR DUP6 SSTORE DUP11 DUP15 MSTORE DUP9 DUP13 MSTORE DUP10 DUP15 KECCAK256 DUP14 DUP16 MSTORE DUP13 MSTORE DUP10 DUP15 KECCAK256 SLOAD DUP11 MLOAD PUSH1 0x60 SWAP3 SWAP1 SWAP3 SHL PUSH12 0xFFFFFFFFFFFFFFFFFFFFFFFF NOT AND DUP3 DUP15 ADD SWAP1 DUP2 MSTORE PUSH1 0x34 DUP1 DUP5 ADD SWAP3 SWAP1 SWAP3 MSTORE SWAP1 DUP3 MSTORE DUP7 SWAP3 PUSH2 0x89F SWAP3 SWAP1 SWAP2 SWAP1 PUSH2 0x897 DUP2 PUSH2 0xB1F JUMP JUMPDEST MLOAD SWAP1 KECCAK256 PUSH2 0xC72 JUMP JUMPDEST AND SUB PUSH2 0xA14 JUMPI DUP3 AND ISZERO PUSH2 0x991 JUMPI SWAP1 DUP10 SWAP3 SWAP2 SLOAD AND SWAP3 SLOAD SWAP1 DUP6 MLOAD SWAP1 DUP9 DUP3 ADD SWAP3 PUSH4 0xA9059CBB PUSH1 0xE0 SHL DUP5 MSTORE DUP11 DUP14 DUP5 ADD MSTORE PUSH1 0x44 DUP4 ADD MSTORE PUSH1 0x44 DUP3 MSTORE PUSH1 0x80 DUP3 ADD SWAP1 DUP3 DUP3 LT SWAP1 DUP3 GT OR PUSH2 0x97F JUMPI DUP7 MSTORE MLOAD PUSH2 0x902 SWAP3 SWAP2 DUP3 SWAP2 SWAP1 DUP3 DUP7 GAS CALL PUSH2 0x8FB PUSH2 0xBE0 JUMP JUMPDEST SWAP1 DUP4 PUSH2 0xC0F JUMP JUMPDEST DUP1 MLOAD DUP7 DUP2 ISZERO ISZERO SWAP2 DUP3 PUSH2 0x95E JUMPI JUMPDEST POP POP SWAP1 POP PUSH2 0x94B JUMPI POP POP PUSH32 0x221C08A06B07A64803B3787861A3F276212FCCCB51C2E6234077A9B8CB13047A SWAP4 SWAP5 SWAP6 POP JUMPDEST MLOAD SWAP1 DUP2 MSTORE LOG2 PUSH1 0x1 DUP2 SSTORE DUP1 RETURN JUMPDEST DUP8 SWAP3 MLOAD SWAP2 PUSH4 0x5274AFE7 PUSH1 0xE0 SHL DUP4 MSTORE DUP3 ADD MSTORE REVERT JUMPDEST DUP4 DUP1 SWAP3 SWAP4 POP ADD SUB SLT PUSH2 0x4B2 JUMPI DUP6 ADD MLOAD DUP1 ISZERO SWAP1 DUP2 ISZERO SUB PUSH2 0x4B2 JUMPI DUP1 DUP7 PUSH0 PUSH2 0x90F JUMP JUMPDEST PUSH4 0x4E487B71 PUSH1 0xE0 SHL DUP5 MSTORE PUSH1 0x41 DUP7 MSTORE DUP12 DUP5 REVERT JUMPDEST POP POP POP SWAP7 SWAP1 SWAP7 SLOAD SWAP1 PUSH8 0xDE0B6B3A7640000 SWAP2 DUP3 DUP2 MUL SWAP3 DUP2 DUP5 DIV EQ SWAP1 ISZERO OR ISZERO PUSH2 0xA03 JUMPI POP DUP6 DUP1 DUP1 DUP1 SWAP4 DUP9 GAS CALL PUSH2 0x9C4 PUSH2 0xBE0 JUMP JUMPDEST POP ISZERO PUSH2 0x9F4 JUMPI PUSH32 0x221C08A06B07A64803B3787861A3F276212FCCCB51C2E6234077A9B8CB13047A SWAP4 SWAP5 SWAP6 POP PUSH2 0x93F JUMP JUMPDEST MLOAD PUSH4 0x17F2C345 PUSH1 0xE3 SHL DUP2 MSTORE DUP6 SWAP1 REVERT JUMPDEST PUSH4 0x4E487B71 PUSH1 0xE0 SHL DUP8 MSTORE PUSH1 0x11 DUP9 MSTORE DUP7 REVERT JUMPDEST DUP7 MLOAD PUSH4 0x8A24AB5 PUSH1 0xE3 SHL DUP2 MSTORE DUP7 SWAP1 REVERT JUMPDEST DUP10 MLOAD PUSH4 0x3F165A61 PUSH1 0xE2 SHL DUP2 MSTORE DUP10 SWAP1 REVERT JUMPDEST DUP10 MLOAD PUSH4 0x5EC82351 PUSH1 0xE0 SHL DUP2 MSTORE DUP10 SWAP1 REVERT JUMPDEST DUP9 MLOAD PUSH4 0x31DA4827 PUSH1 0xE1 SHL DUP2 MSTORE DUP9 SWAP1 REVERT JUMPDEST PUSH4 0x4E487B71 PUSH1 0xE0 SHL DUP15 MSTORE PUSH1 0x21 DUP10 MSTORE DUP15 DUP15 REVERT JUMPDEST DUP9 DUP1 REVERT JUMPDEST DUP6 DUP1 REVERT JUMPDEST POP DUP1 REVERT JUMPDEST POP SWAP2 CALLVALUE PUSH2 0x51A JUMPI DUP2 PUSH1 0x3 NOT CALLDATASIZE ADD SLT PUSH2 0x51A JUMPI DUP2 PUSH1 0x20 SWAP4 PUSH1 0xFF SWAP3 PUSH2 0xA93 PUSH2 0xAD5 JUMP JUMPDEST SWAP1 CALLDATALOAD DUP3 MSTORE PUSH1 0x3 DUP7 MSTORE DUP3 DUP3 KECCAK256 PUSH1 0x1 PUSH1 0x1 PUSH1 0xA0 SHL SUB SWAP1 SWAP2 AND DUP3 MSTORE DUP6 MSTORE KECCAK256 SLOAD SWAP2 MLOAD SWAP2 AND ISZERO ISZERO DUP2 MSTORE RETURN JUMPDEST SWAP1 POP CALLVALUE PUSH2 0xA6E JUMPI DUP2 PUSH1 0x3 NOT CALLDATASIZE ADD SLT PUSH2 0xA6E JUMPI PUSH1 0x20 SWAP1 PUSH1 0x1 SLOAD DUP2 MSTORE RETURN JUMPDEST PUSH1 0x24 CALLDATALOAD SWAP1 PUSH1 0x1 PUSH1 0x1 PUSH1 0xA0 SHL SUB DUP3 AND DUP3 SUB PUSH2 0xAEB JUMPI JUMP JUMPDEST PUSH0 DUP1 REVERT JUMPDEST PUSH1 0xC0 DUP2 ADD SWAP1 DUP2 LT PUSH8 0xFFFFFFFFFFFFFFFF DUP3 GT OR PUSH2 0xB0B JUMPI PUSH1 0x40 MSTORE JUMP JUMPDEST PUSH4 0x4E487B71 PUSH1 0xE0 SHL PUSH0 MSTORE PUSH1 0x41 PUSH1 0x4 MSTORE PUSH1 0x24 PUSH0 REVERT JUMPDEST PUSH1 0x60 DUP2 ADD SWAP1 DUP2 LT PUSH8 0xFFFFFFFFFFFFFFFF DUP3 GT OR PUSH2 0xB0B JUMPI PUSH1 0x40 MSTORE JUMP JUMPDEST SWAP1 PUSH1 0x1F DUP1 NOT SWAP2 ADD AND DUP2 ADD SWAP1 DUP2 LT PUSH8 0xFFFFFFFFFFFFFFFF DUP3 GT OR PUSH2 0xB0B JUMPI PUSH1 0x40 MSTORE JUMP JUMPDEST PUSH8 0xFFFFFFFFFFFFFFFF DUP2 GT PUSH2 0xB0B JUMPI PUSH1 0x1F ADD PUSH1 0x1F NOT AND PUSH1 0x20 ADD SWAP1 JUMP JUMPDEST DUP2 PUSH1 0x1F DUP3 ADD SLT ISZERO PUSH2 0xAEB JUMPI DUP1 CALLDATALOAD SWAP1 PUSH2 0xB90 DUP3 PUSH2 0xB5D JUMP JUMPDEST SWAP3 PUSH2 0xB9E PUSH1 0x40 MLOAD SWAP5 DUP6 PUSH2 0xB3B JUMP JUMPDEST DUP3 DUP5 MSTORE PUSH1 0x20 DUP4 DUP4 ADD ADD GT PUSH2 0xAEB JUMPI DUP2 PUSH0 SWAP3 PUSH1 0x20 DUP1 SWAP4 ADD DUP4 DUP7 ADD CALLDATACOPY DUP4 ADD ADD MSTORE SWAP1 JUMP JUMPDEST PUSH1 0x2 PUSH0 SLOAD EQ PUSH2 0xBCE JUMPI PUSH1 0x2 PUSH0 SSTORE JUMP JUMPDEST PUSH1 0x40 MLOAD PUSH4 0x3EE5AEB5 PUSH1 0xE0 SHL DUP2 MSTORE PUSH1 0x4 SWAP1 REVERT JUMPDEST RETURNDATASIZE ISZERO PUSH2 0xC0A JUMPI RETURNDATASIZE SWAP1 PUSH2 0xBF1 DUP3 PUSH2 0xB5D JUMP JUMPDEST SWAP2 PUSH2 0xBFF PUSH1 0x40 MLOAD SWAP4 DUP5 PUSH2 0xB3B JUMP JUMPDEST DUP3 MSTORE RETURNDATASIZE PUSH0 PUSH1 0x20 DUP5 ADD RETURNDATACOPY JUMP JUMPDEST PUSH1 0x60 SWAP1 JUMP JUMPDEST SWAP1 PUSH2 0xC36 JUMPI POP DUP1 MLOAD ISZERO PUSH2 0xC24 JUMPI DUP1 MLOAD SWAP1 PUSH1 0x20 ADD REVERT JUMPDEST PUSH1 0x40 MLOAD PUSH4 0xA12F521 PUSH1 0xE1 SHL DUP2 MSTORE PUSH1 0x4 SWAP1 REVERT JUMPDEST DUP2 MLOAD ISZERO DUP1 PUSH2 0xC69 JUMPI JUMPDEST PUSH2 0xC47 JUMPI POP SWAP1 JUMP JUMPDEST PUSH1 0x40 MLOAD PUSH4 0x9996B315 PUSH1 0xE0 SHL DUP2 MSTORE PUSH1 0x1 PUSH1 0x1 PUSH1 0xA0 SHL SUB SWAP1 SWAP2 AND PUSH1 0x4 DUP3 ADD MSTORE PUSH1 0x24 SWAP1 REVERT JUMPDEST POP DUP1 EXTCODESIZE ISZERO PUSH2 0xC3F JUMP JUMPDEST PUSH2 0xCC8 SWAP2 PUSH2 0xCBF SWAP2 PUSH1 0x40 MLOAD PUSH1 0x20 DUP2 ADD SWAP2 PUSH32 0x19457468657265756D205369676E6564204D6573736167653A0A333200000000 DUP4 MSTORE PUSH1 0x3C DUP3 ADD MSTORE PUSH1 0x3C DUP2 MSTORE PUSH2 0xCB7 DUP2 PUSH2 0xB1F JUMP JUMPDEST MLOAD SWAP1 KECCAK256 PUSH2 0xCCB JUMP JUMPDEST SWAP1 SWAP3 SWAP2 SWAP3 PUSH2 0xD93 JUMP JUMPDEST SWAP1 JUMP JUMPDEST DUP2 MLOAD SWAP2 SWAP1 PUSH1 0x41 DUP4 SUB PUSH2 0xCFB JUMPI PUSH2 0xCF4 SWAP3 POP PUSH1 0x20 DUP3 ADD MLOAD SWAP1 PUSH1 0x60 PUSH1 0x40 DUP5 ADD MLOAD SWAP4 ADD MLOAD PUSH0 BYTE SWAP1 PUSH2 0xD05 JUMP JUMPDEST SWAP2 SWAP3 SWAP1 SWAP2 SWAP1 JUMP JUMPDEST POP POP PUSH0 SWAP2 PUSH1 0x2 SWAP2 SWAP1 JUMP JUMPDEST SWAP2 SWAP1 PUSH32 0x7FFFFFFFFFFFFFFFFFFFFFFFFFFFFFFF5D576E7357A4501DDFE92F46681B20A0 DUP5 GT PUSH2 0xD88 JUMPI SWAP3 PUSH1 0x20 SWAP3 SWAP2 PUSH1 0xFF PUSH1 0x80 SWAP6 PUSH1 0x40 MLOAD SWAP5 DUP6 MSTORE AND DUP5 DUP5 ADD MSTORE PUSH1 0x40 DUP4 ADD MSTORE PUSH1 0x60 DUP3 ADD MSTORE PUSH0 SWAP3 DUP4 SWAP2 DUP3 DUP1 MSTORE PUSH1 0x1 GAS STATICCALL ISZERO PUSH2 0xD7C JUMPI DUP1 MLOAD PUSH1 0x1 PUSH1 0x1 PUSH1 0xA0 SHL SUB DUP2 AND ISZERO PUSH2 0xD73 JUMPI SWAP2 DUP2 SWAP1 JUMP JUMPDEST POP DUP1 SWAP2 PUSH1 0x1 SWAP2 SWAP1 JUMP JUMPDEST PUSH1 0x40 MLOAD SWAP1 RETURNDATASIZE SWAP1 DUP3 RETURNDATACOPY RETURNDATASIZE SWAP1 REVERT JUMPDEST POP POP POP PUSH0 SWAP2 PUSH1 0x3 SWAP2 SWAP1 JUMP JUMPDEST PUSH1 0x4 DUP2 LT ISZERO PUSH2 0xE02 JUMPI DUP1 PUSH2 0xDA5 JUMPI POP POP JUMP JUMPDEST PUSH1 0x1 DUP2 SUB PUSH2 0xDBF JUMPI PUSH1 0x40 MLOAD PUSH4 0xF645EEDF PUSH1 0xE0 SHL DUP2 MSTORE PUSH1 0x4 SWAP1 REVERT JUMPDEST PUSH1 0x2 DUP2 SUB PUSH2 0xDE0 JUMPI PUSH1 0x40 MLOAD PUSH4 0xFCE698F7 PUSH1 0xE0 SHL DUP2 MSTORE PUSH1 0x4 DUP2 ADD DUP4 SWAP1 MSTORE PUSH1 0x24 SWAP1 REVERT JUMPDEST PUSH1 0x3 EQ PUSH2 0xDEA JUMPI POP JUMP JUMPDEST PUSH1 0x24 SWAP1 PUSH1 0x40 MLOAD SWAP1 PUSH4 0x35E2F383 PUSH1 0xE2 SHL DUP3 MSTORE PUSH1 0x4 DUP3 ADD MSTORE REVERT JUMPDEST PUSH4 0x4E487B71 PUSH1 0xE0 SHL PUSH0 MSTORE PUSH1 0x21 PUSH1 0x4 MSTORE PUSH1 0x24 PUSH0 REVERT INVALID LOG2 PUSH5 0x6970667358 0x22 SLT KECCAK256 LT SWAP13 0xD0 0xE5 PUSH6 0x18A7BD80BDB0 0x4E 0x5D POP MOD 0xA5 0xC2 0xE4 0xDD 0xA9 CHAINID 0xC9 0xAA PUSH10 0xCCF2CFC6891B3DD16473 PUSH16 0x6C634300081400330000000000000000 "},"methodIdentifiers":{"getMessages(uint256,address)":"fd76554a","getOrderDetails(uint256)":"ec7dd7bb","isBuyerRegistered(uint256,address)":"55caccce","listOrderAsSeller(uint256,address)":"b1b4c558","recoverSignedAddress(bytes32,bytes)":"ae4af9ea","registerAsBuyer(uint256,uint256)":"9e368a29","releaseFunds(uint256,bytes,address)":"81a41611","totalOrders()":"1d834409"}}}}}